{
  "_format": "hh-sol-artifact-1",
  "contractName": "ContractFactory",
  "sourceName": "contracts/Marketplace.sol",
  "abi": [
    {
      "anonymous": false,
      "inputs": [
        {
          "indexed": true,
          "internalType": "address",
          "name": "newEventContractAddress",
          "type": "address"
        },
        {
          "indexed": true,
          "internalType": "address",
          "name": "owner",
          "type": "address"
        }
      ],
      "name": "EventContractCreated",
      "type": "event"
    },
    {
      "inputs": [
        {
          "internalType": "string",
          "name": "_nameOfEvent",
          "type": "string"
        },
        {
          "internalType": "uint256",
          "name": "_endTicketSale",
          "type": "uint256"
        },
        {
          "internalType": "string",
          "name": "_aboutEvent",
          "type": "string"
        },
        {
          "internalType": "uint256",
          "name": "_priceForEvent",
          "type": "uint256"
        },
        {
          "internalType": "string",
          "name": "_uri",
          "type": "string"
        }
      ],
      "name": "createEventContract",
      "outputs": [
        {
          "internalType": "address",
          "name": "",
          "type": "address"
        },
        {
          "internalType": "address",
          "name": "",
          "type": "address"
        }
      ],
      "stateMutability": "nonpayable",
      "type": "function"
    },
    {
      "inputs": [
        {
          "internalType": "uint256",
          "name": "",
          "type": "uint256"
        }
      ],
      "name": "eventContracts",
      "outputs": [
        {
          "internalType": "contract EventContract",
          "name": "",
          "type": "address"
        }
      ],
      "stateMutability": "view",
      "type": "function"
    },
    {
      "inputs": [
        {
          "internalType": "uint256",
          "name": "index",
          "type": "uint256"
        }
      ],
      "name": "getEventContractAddress",
      "outputs": [
        {
          "internalType": "address",
          "name": "",
          "type": "address"
        }
      ],
      "stateMutability": "view",
      "type": "function"
    },
    {
      "inputs": [],
      "name": "getNumberOfEventContracts",
      "outputs": [
        {
          "internalType": "uint256",
          "name": "",
          "type": "uint256"
        }
      ],
      "stateMutability": "view",
      "type": "function"
    }
  ],
  "bytecode": "0x608060405234801561001057600080fd5b5061529c806100206000396000f3fe60806040523480156200001157600080fd5b5060043610620000525760003560e01c806344deb65e146200005757806357e27bc0146200008e578063707343f614620000c4578063751f0c0614620000e6575b600080fd5b6200007560048036038101906200006f9190620005bd565b6200011c565b60405162000085929190620006e7565b60405180910390f35b620000ac6004803603810190620000a6919062000714565b6200031e565b604051620000bb9190620007b1565b60405180910390f35b620000ce6200035e565b604051620000dd9190620007df565b60405180910390f35b620001046004803603810190620000fe919062000714565b6200036a565b604051620001139190620007fc565b60405180910390f35b600080600087878787876040516200013490620003fe565b62000144959493929190620008a2565b604051809103906000f08015801562000161573d6000803e3d6000fd5b509050600081905060008273ffffffffffffffffffffffffffffffffffffffff16638da5cb5b6040518163ffffffff1660e01b8152600401602060405180830381865afa158015620001b7573d6000803e3d6000fd5b505050506040513d601f19601f82011682018060405250810190620001dd919062000945565b90503373ffffffffffffffffffffffffffffffffffffffff168273ffffffffffffffffffffffffffffffffffffffff167fc8efa8b5a7b93f12b6d5c818c5aee7334382101389704f4549ce1f12810ca97960405160405180910390a36000839080600181540180825580915050600190039060005260206000200160009091909190916101000a81548173ffffffffffffffffffffffffffffffffffffffff021916908373ffffffffffffffffffffffffffffffffffffffff1602179055508273ffffffffffffffffffffffffffffffffffffffff1663f2fde38b336040518263ffffffff1660e01b8152600401620002d79190620007fc565b600060405180830381600087803b158015620002f257600080fd5b505af115801562000307573d6000803e3d6000fd5b505050508181945094505050509550959350505050565b600081815481106200032f57600080fd5b906000526020600020016000915054906101000a900473ffffffffffffffffffffffffffffffffffffffff1681565b60008080549050905090565b600080805490508210620003b5576040517f08c379a0000000000000000000000000000000000000000000000000000000008152600401620003ac90620009c7565b60405180910390fd5b60008281548110620003cc57620003cb620009e9565b5b9060005260206000200160009054906101000a900473ffffffffffffffffffffffffffffffffffffffff169050919050565b61484e8062000a1983390190565b6000604051905090565b600080fd5b600080fd5b600080fd5b600080fd5b6000601f19601f8301169050919050565b7f4e487b7100000000000000000000000000000000000000000000000000000000600052604160045260246000fd5b62000475826200042a565b810181811067ffffffffffffffff821117156200049757620004966200043b565b5b80604052505050565b6000620004ac6200040c565b9050620004ba82826200046a565b919050565b600067ffffffffffffffff821115620004dd57620004dc6200043b565b5b620004e8826200042a565b9050602081019050919050565b82818337600083830152505050565b60006200051b6200051584620004bf565b620004a0565b9050828152602081018484840111156200053a576200053962000425565b5b62000547848285620004f5565b509392505050565b600082601f83011262000567576200056662000420565b5b81356200057984826020860162000504565b91505092915050565b6000819050919050565b620005978162000582565b8114620005a357600080fd5b50565b600081359050620005b7816200058c565b92915050565b600080600080600060a08688031215620005dc57620005db62000416565b5b600086013567ffffffffffffffff811115620005fd57620005fc6200041b565b5b6200060b888289016200054f565b95505060206200061e88828901620005a6565b945050604086013567ffffffffffffffff8111156200064257620006416200041b565b5b62000650888289016200054f565b93505060606200066388828901620005a6565b925050608086013567ffffffffffffffff8111156200068757620006866200041b565b5b62000695888289016200054f565b9150509295509295909350565b600073ffffffffffffffffffffffffffffffffffffffff82169050919050565b6000620006cf82620006a2565b9050919050565b620006e181620006c2565b82525050565b6000604082019050620006fe6000830185620006d6565b6200070d6020830184620006d6565b9392505050565b6000602082840312156200072d576200072c62000416565b5b60006200073d84828501620005a6565b91505092915050565b6000819050919050565b6000620007716200076b6200076584620006a2565b62000746565b620006a2565b9050919050565b6000620007858262000750565b9050919050565b6000620007998262000778565b9050919050565b620007ab816200078c565b82525050565b6000602082019050620007c86000830184620007a0565b92915050565b620007d98162000582565b82525050565b6000602082019050620007f66000830184620007ce565b92915050565b6000602082019050620008136000830184620006d6565b92915050565b600081519050919050565b600082825260208201905092915050565b60005b838110156200085557808201518184015260208101905062000838565b60008484015250505050565b60006200086e8262000819565b6200087a818562000824565b93506200088c81856020860162000835565b62000897816200042a565b840191505092915050565b600060a0820190508181036000830152620008be818862000861565b9050620008cf6020830187620007ce565b8181036040830152620008e3818662000861565b9050620008f46060830185620007ce565b818103608083015262000908818462000861565b90509695505050505050565b6200091f81620006c2565b81146200092b57600080fd5b50565b6000815190506200093f8162000914565b92915050565b6000602082840312156200095e576200095d62000416565b5b60006200096e848285016200092e565b91505092915050565b7f496e76616c696420696e64657800000000000000000000000000000000000000600082015250565b6000620009af600d8362000824565b9150620009bc8262000977565b602082019050919050565b60006020820190508181036000830152620009e281620009a0565b9050919050565b7f4e487b7100000000000000000000000000000000000000000000000000000000600052603260045260246000fdfe6080604052600960405160200162000018919062000312565b604051602081830303815290604052600a908162000037919062000541565b506000600c60006101000a81548160ff0219169083151502179055503480156200006057600080fd5b506040516200484e3803806200484e8339818101604052810190620000869190620007bd565b8062000098816200011c60201b60201c565b50620000b9620000ad6200013160201b60201c565b6200013960201b60201c565b8460049081620000ca9190620008fd565b50426005819055508342620000e0919062000a13565b6006819055508260079081620000f79190620008fd565b50816008819055508060099081620001109190620008fd565b50505050505062000a4e565b80600290816200012d9190620008fd565b5050565b600033905090565b6000600360009054906101000a900473ffffffffffffffffffffffffffffffffffffffff16905081600360006101000a81548173ffffffffffffffffffffffffffffffffffffffff021916908373ffffffffffffffffffffffffffffffffffffffff1602179055508173ffffffffffffffffffffffffffffffffffffffff168173ffffffffffffffffffffffffffffffffffffffff167f8be0079c531659141344cd1fd0a4f28419497f9722a3daafe3b4186f6b6457e060405160405180910390a35050565b7f4e487b7100000000000000000000000000000000000000000000000000000000600052602260045260246000fd5b600060028204905060018216806200024757607f821691505b6020821081036200025d576200025c620001ff565b5b50919050565b600081905092915050565b60008190508160005260206000209050919050565b6000815462000292816200022e565b6200029e818662000263565b94506001821660008114620002bc5760018114620002d25762000309565b60ff198316865281151582028601935062000309565b620002dd856200026e565b60005b838110156200030157815481890152600182019150602081019050620002e0565b838801955050505b50505092915050565b600062000320828462000283565b915081905092915050565b600081519050919050565b7f4e487b7100000000000000000000000000000000000000000000000000000000600052604160045260246000fd5b60008190508160005260206000209050919050565b60006020601f8301049050919050565b600082821b905092915050565b600060088302620003c97fffffffffffffffffffffffffffffffffffffffffffffffffffffffffffffffff826200038a565b620003d586836200038a565b95508019841693508086168417925050509392505050565b6000819050919050565b6000819050919050565b6000620004226200041c6200041684620003ed565b620003f7565b620003ed565b9050919050565b6000819050919050565b6200043e8362000401565b620004566200044d8262000429565b84845462000397565b825550505050565b600090565b6200046d6200045e565b6200047a81848462000433565b505050565b5b81811015620004a2576200049660008262000463565b60018101905062000480565b5050565b601f821115620004f157620004bb8162000365565b620004c6846200037a565b81016020851015620004d6578190505b620004ee620004e5856200037a565b8301826200047f565b50505b505050565b600082821c905092915050565b60006200051660001984600802620004f6565b1980831691505092915050565b600062000531838362000503565b9150826002028217905092915050565b6200054c826200032b565b67ffffffffffffffff81111562000568576200056762000336565b5b6200057482546200022e565b62000581828285620004a6565b600060209050601f831160018114620005b95760008415620005a4578287015190505b620005b0858262000523565b86555062000620565b601f198416620005c98662000365565b60005b82811015620005f357848901518255600182019150602085019450602081019050620005cc565b868310156200061357848901516200060f601f89168262000503565b8355505b6001600288020188555050505b505050505050565b6000604051905090565b600080fd5b600080fd5b600080fd5b600080fd5b6000601f19601f8301169050919050565b620006628262000646565b810181811067ffffffffffffffff8211171562000684576200068362000336565b5b80604052505050565b60006200069962000628565b9050620006a7828262000657565b919050565b600067ffffffffffffffff821115620006ca57620006c962000336565b5b620006d58262000646565b9050602081019050919050565b60005b8381101562000702578082015181840152602081019050620006e5565b60008484015250505050565b6000620007256200071f84620006ac565b6200068d565b90508281526020810184848401111562000744576200074362000641565b5b62000751848285620006e2565b509392505050565b600082601f8301126200077157620007706200063c565b5b8151620007838482602086016200070e565b91505092915050565b6200079781620003ed565b8114620007a357600080fd5b50565b600081519050620007b7816200078c565b92915050565b600080600080600060a08688031215620007dc57620007db62000632565b5b600086015167ffffffffffffffff811115620007fd57620007fc62000637565b5b6200080b8882890162000759565b95505060206200081e88828901620007a6565b945050604086015167ffffffffffffffff81111562000842576200084162000637565b5b620008508882890162000759565b93505060606200086388828901620007a6565b925050608086015167ffffffffffffffff81111562000887576200088662000637565b5b620008958882890162000759565b9150509295509295909350565b600081519050919050565b601f821115620008f857620008c2816200026e565b620008cd846200037a565b81016020851015620008dd578190505b620008f5620008ec856200037a565b8301826200047f565b50505b505050565b6200090882620008a2565b67ffffffffffffffff81111562000924576200092362000336565b5b6200093082546200022e565b6200093d828285620008ad565b600060209050601f83116001811462000975576000841562000960578287015190505b6200096c858262000523565b865550620009dc565b601f19841662000985866200026e565b60005b82811015620009af5784890151825560018201915060208501945060208101905062000988565b86831015620009cf5784890151620009cb601f89168262000503565b8355505b6001600288020188555050505b505050505050565b7f4e487b7100000000000000000000000000000000000000000000000000000000600052601160045260246000fd5b600062000a2082620003ed565b915062000a2d83620003ed565b925082820190508082111562000a485762000a47620009e4565b5b92915050565b613df08062000a5e6000396000f3fe6080604052600436106101d75760003560e01c8063715018a611610102578063bdd97bdd11610095578063eac989f811610064578063eac989f814610696578063f242432a146106c1578063f2fde38b146106ea578063fcf488a914610713576101d7565b8063bdd97bdd146105d8578063bfbfc1c814610603578063e2bb3ccf1461062e578063e985e9c514610659576101d7565b80638da5cb5b116100d15780638da5cb5b1461051c578063a22cb46514610547578063b810fb4314610570578063b81e43fc146105ad576101d7565b8063715018a61461048457806374e94deb1461049b5780637df4ae49146104c657806380d3cd4e146104f1576101d7565b80634a34511e1161017a578063615111421161014957806361511142146103d857806369c1a901146104035780636bd115911461042e5780636c9230db14610459576101d7565b80634a34511e1461031a5780634e1273f4146103455780634e16fc8b146103825780635997e97b146103ad576101d7565b80632eb2c2d6116101b65780632eb2c2d6146102935780632f366637146102bc5780633ccfd60b146102d857806348c724ed146102ef576101d7565b8062fdd58e146101dc57806301ffc9a7146102195780630e89341c14610256575b600080fd5b3480156101e857600080fd5b5061020360048036038101906101fe91906126ee565b61073e565b604051610210919061273d565b60405180910390f35b34801561022557600080fd5b50610240600480360381019061023b91906127b0565b610806565b60405161024d91906127f8565b60405180910390f35b34801561026257600080fd5b5061027d60048036038101906102789190612813565b6108e8565b60405161028a91906128d0565b60405180910390f35b34801561029f57600080fd5b506102ba60048036038101906102b59190612aef565b61097c565b005b6102d660048036038101906102d19190612813565b610a1d565b005b3480156102e457600080fd5b506102ed610c54565b005b3480156102fb57600080fd5b50610304610d87565b604051610311919061273d565b60405180910390f35b34801561032657600080fd5b5061032f610d8d565b60405161033c9190612bcd565b60405180910390f35b34801561035157600080fd5b5061036c60048036038101906103679190612cab565b610db7565b6040516103799190612de1565b60405180910390f35b34801561038e57600080fd5b50610397610ed0565b6040516103a491906128d0565b60405180910390f35b3480156103b957600080fd5b506103c2610f62565b6040516103cf919061273d565b60405180910390f35b3480156103e457600080fd5b506103ed610f74565b6040516103fa919061273d565b60405180910390f35b34801561040f57600080fd5b50610418610f7a565b60405161042591906128d0565b60405180910390f35b34801561043a57600080fd5b50610443611008565b6040516104509190612bcd565b60405180910390f35b34801561046557600080fd5b5061046e611265565b60405161047b919061273d565b60405180910390f35b34801561049057600080fd5b5061049961126d565b005b3480156104a757600080fd5b506104b0611281565b6040516104bd919061273d565b60405180910390f35b3480156104d257600080fd5b506104db61128b565b6040516104e8919061273d565b60405180910390f35b3480156104fd57600080fd5b50610506611291565b60405161051391906128d0565b60405180910390f35b34801561052857600080fd5b5061053161131f565b60405161053e9190612bcd565b60405180910390f35b34801561055357600080fd5b5061056e60048036038101906105699190612e2f565b611349565b005b34801561057c57600080fd5b5061059760048036038101906105929190612813565b61135f565b6040516105a49190612bcd565b60405180910390f35b3480156105b957600080fd5b506105c261139e565b6040516105cf91906128d0565b60405180910390f35b3480156105e457600080fd5b506105ed611430565b6040516105fa919061273d565b60405180910390f35b34801561060f57600080fd5b5061061861143a565b60405161062591906127f8565b60405180910390f35b34801561063a57600080fd5b5061064361144d565b60405161065091906128d0565b60405180910390f35b34801561066557600080fd5b50610680600480360381019061067b9190612e6f565b6114df565b60405161068d91906127f8565b60405180910390f35b3480156106a257600080fd5b506106ab611573565b6040516106b891906128d0565b60405180910390f35b3480156106cd57600080fd5b506106e860048036038101906106e39190612eaf565b611601565b005b3480156106f657600080fd5b50610711600480360381019061070c9190612f46565b6116a2565b005b34801561071f57600080fd5b50610728611725565b6040516107359190612bcd565b60405180910390f35b60008073ffffffffffffffffffffffffffffffffffffffff168373ffffffffffffffffffffffffffffffffffffffff16036107ae576040517f08c379a00000000000000000000000000000000000000000000000000000000081526004016107a590612fe5565b60405180910390fd5b60008083815260200190815260200160002060008473ffffffffffffffffffffffffffffffffffffffff1673ffffffffffffffffffffffffffffffffffffffff16815260200190815260200160002054905092915050565b60007fd9b67a26000000000000000000000000000000000000000000000000000000007bffffffffffffffffffffffffffffffffffffffffffffffffffffffff1916827bffffffffffffffffffffffffffffffffffffffffffffffffffffffff191614806108d157507f0e89341c000000000000000000000000000000000000000000000000000000007bffffffffffffffffffffffffffffffffffffffffffffffffffffffff1916827bffffffffffffffffffffffffffffffffffffffffffffffffffffffff1916145b806108e157506108e08261174b565b5b9050919050565b6060600280546108f790613034565b80601f016020809104026020016040519081016040528092919081815260200182805461092390613034565b80156109705780601f1061094557610100808354040283529160200191610970565b820191906000526020600020905b81548152906001019060200180831161095357829003601f168201915b50505050509050919050565b6109846117b5565b73ffffffffffffffffffffffffffffffffffffffff168573ffffffffffffffffffffffffffffffffffffffff1614806109ca57506109c9856109c46117b5565b6114df565b5b610a09576040517f08c379a0000000000000000000000000000000000000000000000000000000008152600401610a00906130d7565b60405180910390fd5b610a1685858585856117bd565b5050505050565b80600854610a2b9190613126565b341015610a6d576040517f08c379a0000000000000000000000000000000000000000000000000000000008152600401610a64906131b4565b60405180910390fd5b6006544210610ab1576040517f08c379a0000000000000000000000000000000000000000000000000000000008152600401610aa890613220565b60405180910390fd5b610b4833600183600a8054610ac590613034565b80601f0160208091040260200160405190810160405280929190818152602001828054610af190613034565b8015610b3e5780601f10610b1357610100808354040283529160200191610b3e565b820191906000526020600020905b815481529060010190602001808311610b2157829003601f168201915b5050505050611ade565b6000805b600b80549050811015610be6573373ffffffffffffffffffffffffffffffffffffffff16600b8281548110610b8457610b83613240565b5b9060005260206000200160009054906101000a900473ffffffffffffffffffffffffffffffffffffffff1673ffffffffffffffffffffffffffffffffffffffff1603610bd35760019150610be6565b8080610bde9061326f565b915050610b4c565b5080610c5057600b339080600181540180825580915050600190039060005260206000200160009091909190916101000a81548173ffffffffffffffffffffffffffffffffffffffff021916908373ffffffffffffffffffffffffffffffffffffffff1602179055505b5050565b600654421015610c99576040517f08c379a0000000000000000000000000000000000000000000000000000000008152600401610c9090613303565b60405180910390fd5b610ca1611af0565b600047905060008111610ce9576040517f08c379a0000000000000000000000000000000000000000000000000000000008152600401610ce09061336f565b60405180910390fd5b60011515600c60009054906101000a900460ff16151514610d3f576040517f08c379a0000000000000000000000000000000000000000000000000000000008152600401610d36906133db565b60405180910390fd5b610d4761131f565b73ffffffffffffffffffffffffffffffffffffffff166108fc479081150290604051600060405180830381858888f19350505050610d8457600080fd5b50565b60055481565b6000600c60019054906101000a900473ffffffffffffffffffffffffffffffffffffffff16905090565b60608151835114610dfd576040517f08c379a0000000000000000000000000000000000000000000000000000000008152600401610df49061346d565b60405180910390fd5b6000835167ffffffffffffffff811115610e1a57610e196128f7565b5b604051908082528060200260200182016040528015610e485781602001602082028036833780820191505090505b50905060005b8451811015610ec557610e95858281518110610e6d57610e6c613240565b5b6020026020010151858381518110610e8857610e87613240565b5b602002602001015161073e565b828281518110610ea857610ea7613240565b5b60200260200101818152505080610ebe9061326f565b9050610e4e565b508091505092915050565b606060098054610edf90613034565b80601f0160208091040260200160405190810160405280929190818152602001828054610f0b90613034565b8015610f585780601f10610f2d57610100808354040283529160200191610f58565b820191906000526020600020905b815481529060010190602001808311610f3b57829003601f168201915b5050505050905090565b6000610f6f33600161073e565b905090565b60085481565b60048054610f8790613034565b80601f0160208091040260200160405190810160405280929190818152602001828054610fb390613034565b80156110005780601f10610fd557610100808354040283529160200191611000565b820191906000526020600020905b815481529060010190602001808311610fe357829003601f168201915b505050505081565b600060065442101561104f576040517f08c379a000000000000000000000000000000000000000000000000000000000815260040161104690613303565b60405180910390fd5b6000600b8054905011611097576040517f08c379a000000000000000000000000000000000000000000000000000000000815260040161108e906134d9565b60405180910390fd5b600c60009054906101000a900460ff16156110e7576040517f08c379a00000000000000000000000000000000000000000000000000000000081526004016110de90613545565b60405180910390fd5b6000600b805490504244604051602001611102929190613586565b6040516020818303038152906040528051906020012060001c61112591906135e1565b90506000600b828154811061113d5761113c613240565b5b9060005260206000200160009054906101000a900473ffffffffffffffffffffffffffffffffffffffff16905080600c60016101000a81548173ffffffffffffffffffffffffffffffffffffffff021916908373ffffffffffffffffffffffffffffffffffffffff16021790555061124281600180600a80546111bf90613034565b80601f01602080910402602001604051908101604052809291908181526020018280546111eb90613034565b80156112385780601f1061120d57610100808354040283529160200191611238565b820191906000526020600020905b81548152906001019060200180831161121b57829003601f168201915b5050505050611ade565b6001600c60006101000a81548160ff021916908315150217905550809250505090565b600042905090565b611275611af0565b61127f6000611b6e565b565b6000600654905090565b60065481565b6007805461129e90613034565b80601f01602080910402602001604051908101604052809291908181526020018280546112ca90613034565b80156113175780601f106112ec57610100808354040283529160200191611317565b820191906000526020600020905b8154815290600101906020018083116112fa57829003601f168201915b505050505081565b6000600360009054906101000a900473ffffffffffffffffffffffffffffffffffffffff16905090565b61135b6113546117b5565b8383611c34565b5050565b600b818154811061136f57600080fd5b906000526020600020016000915054906101000a900473ffffffffffffffffffffffffffffffffffffffff1681565b6060600480546113ad90613034565b80601f01602080910402602001604051908101604052809291908181526020018280546113d990613034565b80156114265780601f106113fb57610100808354040283529160200191611426565b820191906000526020600020905b81548152906001019060200180831161140957829003601f168201915b5050505050905090565b6000600854905090565b600c60009054906101000a900460ff1681565b60606007805461145c90613034565b80601f016020809104026020016040519081016040528092919081815260200182805461148890613034565b80156114d55780601f106114aa576101008083540402835291602001916114d5565b820191906000526020600020905b8154815290600101906020018083116114b857829003601f168201915b5050505050905090565b6000600160008473ffffffffffffffffffffffffffffffffffffffff1673ffffffffffffffffffffffffffffffffffffffff16815260200190815260200160002060008373ffffffffffffffffffffffffffffffffffffffff1673ffffffffffffffffffffffffffffffffffffffff16815260200190815260200160002060009054906101000a900460ff16905092915050565b6009805461158090613034565b80601f01602080910402602001604051908101604052809291908181526020018280546115ac90613034565b80156115f95780601f106115ce576101008083540402835291602001916115f9565b820191906000526020600020905b8154815290600101906020018083116115dc57829003601f168201915b505050505081565b6116096117b5565b73ffffffffffffffffffffffffffffffffffffffff168573ffffffffffffffffffffffffffffffffffffffff16148061164f575061164e856116496117b5565b6114df565b5b61168e576040517f08c379a0000000000000000000000000000000000000000000000000000000008152600401611685906130d7565b60405180910390fd5b61169b8585858585611da0565b5050505050565b6116aa611af0565b600073ffffffffffffffffffffffffffffffffffffffff168173ffffffffffffffffffffffffffffffffffffffff1603611719576040517f08c379a000000000000000000000000000000000000000000000000000000000815260040161171090613684565b60405180910390fd5b61172281611b6e565b50565b600c60019054906101000a900473ffffffffffffffffffffffffffffffffffffffff1681565b60007f01ffc9a7000000000000000000000000000000000000000000000000000000007bffffffffffffffffffffffffffffffffffffffffffffffffffffffff1916827bffffffffffffffffffffffffffffffffffffffffffffffffffffffff1916149050919050565b600033905090565b8151835114611801576040517f08c379a00000000000000000000000000000000000000000000000000000000081526004016117f890613716565b60405180910390fd5b600073ffffffffffffffffffffffffffffffffffffffff168473ffffffffffffffffffffffffffffffffffffffff1603611870576040517f08c379a0000000000000000000000000000000000000000000000000000000008152600401611867906137a8565b60405180910390fd5b600061187a6117b5565b905061188a81878787878761203b565b60005b8451811015611a3b5760008582815181106118ab576118aa613240565b5b6020026020010151905060008583815181106118ca576118c9613240565b5b60200260200101519050600080600084815260200190815260200160002060008b73ffffffffffffffffffffffffffffffffffffffff1673ffffffffffffffffffffffffffffffffffffffff1681526020019081526020016000205490508181101561196b576040517f08c379a00000000000000000000000000000000000000000000000000000000081526004016119629061383a565b60405180910390fd5b81810360008085815260200190815260200160002060008c73ffffffffffffffffffffffffffffffffffffffff1673ffffffffffffffffffffffffffffffffffffffff168152602001908152602001600020819055508160008085815260200190815260200160002060008b73ffffffffffffffffffffffffffffffffffffffff1673ffffffffffffffffffffffffffffffffffffffff1681526020019081526020016000206000828254611a20919061385a565b9250508190555050505080611a349061326f565b905061188d565b508473ffffffffffffffffffffffffffffffffffffffff168673ffffffffffffffffffffffffffffffffffffffff168273ffffffffffffffffffffffffffffffffffffffff167f4a39dc06d4c0dbc64b70af90fd698a233a518aa5d07e595d983b8c0526c8f7fb8787604051611ab292919061388e565b60405180910390a4611ac8818787878787612043565b611ad681878787878761204b565b505050505050565b611aea84848484612222565b50505050565b611af86117b5565b73ffffffffffffffffffffffffffffffffffffffff16611b1661131f565b73ffffffffffffffffffffffffffffffffffffffff1614611b6c576040517f08c379a0000000000000000000000000000000000000000000000000000000008152600401611b6390613911565b60405180910390fd5b565b6000600360009054906101000a900473ffffffffffffffffffffffffffffffffffffffff16905081600360006101000a81548173ffffffffffffffffffffffffffffffffffffffff021916908373ffffffffffffffffffffffffffffffffffffffff1602179055508173ffffffffffffffffffffffffffffffffffffffff168173ffffffffffffffffffffffffffffffffffffffff167f8be0079c531659141344cd1fd0a4f28419497f9722a3daafe3b4186f6b6457e060405160405180910390a35050565b8173ffffffffffffffffffffffffffffffffffffffff168373ffffffffffffffffffffffffffffffffffffffff1603611ca2576040517f08c379a0000000000000000000000000000000000000000000000000000000008152600401611c99906139a3565b60405180910390fd5b80600160008573ffffffffffffffffffffffffffffffffffffffff1673ffffffffffffffffffffffffffffffffffffffff16815260200190815260200160002060008473ffffffffffffffffffffffffffffffffffffffff1673ffffffffffffffffffffffffffffffffffffffff16815260200190815260200160002060006101000a81548160ff0219169083151502179055508173ffffffffffffffffffffffffffffffffffffffff168373ffffffffffffffffffffffffffffffffffffffff167f17307eab39ab6107e8899845ad3d59bd9653f200f220920489ca2b5937696c3183604051611d9391906127f8565b60405180910390a3505050565b600073ffffffffffffffffffffffffffffffffffffffff168473ffffffffffffffffffffffffffffffffffffffff1603611e0f576040517f08c379a0000000000000000000000000000000000000000000000000000000008152600401611e06906137a8565b60405180910390fd5b6000611e196117b5565b90506000611e26856123d2565b90506000611e33856123d2565b9050611e4383898985858961203b565b600080600088815260200190815260200160002060008a73ffffffffffffffffffffffffffffffffffffffff1673ffffffffffffffffffffffffffffffffffffffff16815260200190815260200160002054905085811015611eda576040517f08c379a0000000000000000000000000000000000000000000000000000000008152600401611ed19061383a565b60405180910390fd5b85810360008089815260200190815260200160002060008b73ffffffffffffffffffffffffffffffffffffffff1673ffffffffffffffffffffffffffffffffffffffff168152602001908152602001600020819055508560008089815260200190815260200160002060008a73ffffffffffffffffffffffffffffffffffffffff1673ffffffffffffffffffffffffffffffffffffffff1681526020019081526020016000206000828254611f8f919061385a565b925050819055508773ffffffffffffffffffffffffffffffffffffffff168973ffffffffffffffffffffffffffffffffffffffff168573ffffffffffffffffffffffffffffffffffffffff167fc3d58168c5ae7397731d063d5bbf3d657854427343f4c083240f7aacaa2d0f628a8a60405161200c9291906139c3565b60405180910390a4612022848a8a86868a612043565b612030848a8a8a8a8a61244c565b505050505050505050565b505050505050565b505050505050565b61206a8473ffffffffffffffffffffffffffffffffffffffff16612623565b1561221a578373ffffffffffffffffffffffffffffffffffffffff1663bc197c8187878686866040518663ffffffff1660e01b81526004016120b0959493929190613a41565b6020604051808303816000875af19250505080156120ec57506040513d601f19601f820116820180604052508101906120e99190613abe565b60015b612191576120f8613af8565b806308c379a003612154575061210c613b1a565b806121175750612156565b806040517f08c379a000000000000000000000000000000000000000000000000000000000815260040161214b91906128d0565b60405180910390fd5b505b6040517f08c379a000000000000000000000000000000000000000000000000000000000815260040161218890613c1c565b60405180910390fd5b63bc197c8160e01b7bffffffffffffffffffffffffffffffffffffffffffffffffffffffff1916817bffffffffffffffffffffffffffffffffffffffffffffffffffffffff191614612218576040517f08c379a000000000000000000000000000000000000000000000000000000000815260040161220f90613cae565b60405180910390fd5b505b505050505050565b600073ffffffffffffffffffffffffffffffffffffffff168473ffffffffffffffffffffffffffffffffffffffff1603612291576040517f08c379a000000000000000000000000000000000000000000000000000000000815260040161228890613d40565b60405180910390fd5b600061229b6117b5565b905060006122a8856123d2565b905060006122b5856123d2565b90506122c68360008985858961203b565b8460008088815260200190815260200160002060008973ffffffffffffffffffffffffffffffffffffffff1673ffffffffffffffffffffffffffffffffffffffff1681526020019081526020016000206000828254612325919061385a565b925050819055508673ffffffffffffffffffffffffffffffffffffffff16600073ffffffffffffffffffffffffffffffffffffffff168473ffffffffffffffffffffffffffffffffffffffff167fc3d58168c5ae7397731d063d5bbf3d657854427343f4c083240f7aacaa2d0f6289896040516123a39291906139c3565b60405180910390a46123ba83600089858589612043565b6123c98360008989898961244c565b50505050505050565b60606000600167ffffffffffffffff8111156123f1576123f06128f7565b5b60405190808252806020026020018201604052801561241f5781602001602082028036833780820191505090505b509050828160008151811061243757612436613240565b5b60200260200101818152505080915050919050565b61246b8473ffffffffffffffffffffffffffffffffffffffff16612623565b1561261b578373ffffffffffffffffffffffffffffffffffffffff1663f23a6e6187878686866040518663ffffffff1660e01b81526004016124b1959493929190613d60565b6020604051808303816000875af19250505080156124ed57506040513d601f19601f820116820180604052508101906124ea9190613abe565b60015b612592576124f9613af8565b806308c379a003612555575061250d613b1a565b806125185750612557565b806040517f08c379a000000000000000000000000000000000000000000000000000000000815260040161254c91906128d0565b60405180910390fd5b505b6040517f08c379a000000000000000000000000000000000000000000000000000000000815260040161258990613c1c565b60405180910390fd5b63f23a6e6160e01b7bffffffffffffffffffffffffffffffffffffffffffffffffffffffff1916817bffffffffffffffffffffffffffffffffffffffffffffffffffffffff191614612619576040517f08c379a000000000000000000000000000000000000000000000000000000000815260040161261090613cae565b60405180910390fd5b505b505050505050565b6000808273ffffffffffffffffffffffffffffffffffffffff163b119050919050565b6000604051905090565b600080fd5b600080fd5b600073ffffffffffffffffffffffffffffffffffffffff82169050919050565b60006126858261265a565b9050919050565b6126958161267a565b81146126a057600080fd5b50565b6000813590506126b28161268c565b92915050565b6000819050919050565b6126cb816126b8565b81146126d657600080fd5b50565b6000813590506126e8816126c2565b92915050565b6000806040838503121561270557612704612650565b5b6000612713858286016126a3565b9250506020612724858286016126d9565b9150509250929050565b612737816126b8565b82525050565b6000602082019050612752600083018461272e565b92915050565b60007fffffffff0000000000000000000000000000000000000000000000000000000082169050919050565b61278d81612758565b811461279857600080fd5b50565b6000813590506127aa81612784565b92915050565b6000602082840312156127c6576127c5612650565b5b60006127d48482850161279b565b91505092915050565b60008115159050919050565b6127f2816127dd565b82525050565b600060208201905061280d60008301846127e9565b92915050565b60006020828403121561282957612828612650565b5b6000612837848285016126d9565b91505092915050565b600081519050919050565b600082825260208201905092915050565b60005b8381101561287a57808201518184015260208101905061285f565b60008484015250505050565b6000601f19601f8301169050919050565b60006128a282612840565b6128ac818561284b565b93506128bc81856020860161285c565b6128c581612886565b840191505092915050565b600060208201905081810360008301526128ea8184612897565b905092915050565b600080fd5b7f4e487b7100000000000000000000000000000000000000000000000000000000600052604160045260246000fd5b61292f82612886565b810181811067ffffffffffffffff8211171561294e5761294d6128f7565b5b80604052505050565b6000612961612646565b905061296d8282612926565b919050565b600067ffffffffffffffff82111561298d5761298c6128f7565b5b602082029050602081019050919050565b600080fd5b60006129b66129b184612972565b612957565b905080838252602082019050602084028301858111156129d9576129d861299e565b5b835b81811015612a0257806129ee88826126d9565b8452602084019350506020810190506129db565b5050509392505050565b600082601f830112612a2157612a206128f2565b5b8135612a318482602086016129a3565b91505092915050565b600080fd5b600067ffffffffffffffff821115612a5a57612a596128f7565b5b612a6382612886565b9050602081019050919050565b82818337600083830152505050565b6000612a92612a8d84612a3f565b612957565b905082815260208101848484011115612aae57612aad612a3a565b5b612ab9848285612a70565b509392505050565b600082601f830112612ad657612ad56128f2565b5b8135612ae6848260208601612a7f565b91505092915050565b600080600080600060a08688031215612b0b57612b0a612650565b5b6000612b19888289016126a3565b9550506020612b2a888289016126a3565b945050604086013567ffffffffffffffff811115612b4b57612b4a612655565b5b612b5788828901612a0c565b935050606086013567ffffffffffffffff811115612b7857612b77612655565b5b612b8488828901612a0c565b925050608086013567ffffffffffffffff811115612ba557612ba4612655565b5b612bb188828901612ac1565b9150509295509295909350565b612bc78161267a565b82525050565b6000602082019050612be26000830184612bbe565b92915050565b600067ffffffffffffffff821115612c0357612c026128f7565b5b602082029050602081019050919050565b6000612c27612c2284612be8565b612957565b90508083825260208201905060208402830185811115612c4a57612c4961299e565b5b835b81811015612c735780612c5f88826126a3565b845260208401935050602081019050612c4c565b5050509392505050565b600082601f830112612c9257612c916128f2565b5b8135612ca2848260208601612c14565b91505092915050565b60008060408385031215612cc257612cc1612650565b5b600083013567ffffffffffffffff811115612ce057612cdf612655565b5b612cec85828601612c7d565b925050602083013567ffffffffffffffff811115612d0d57612d0c612655565b5b612d1985828601612a0c565b9150509250929050565b600081519050919050565b600082825260208201905092915050565b6000819050602082019050919050565b612d58816126b8565b82525050565b6000612d6a8383612d4f565b60208301905092915050565b6000602082019050919050565b6000612d8e82612d23565b612d988185612d2e565b9350612da383612d3f565b8060005b83811015612dd4578151612dbb8882612d5e565b9750612dc683612d76565b925050600181019050612da7565b5085935050505092915050565b60006020820190508181036000830152612dfb8184612d83565b905092915050565b612e0c816127dd565b8114612e1757600080fd5b50565b600081359050612e2981612e03565b92915050565b60008060408385031215612e4657612e45612650565b5b6000612e54858286016126a3565b9250506020612e6585828601612e1a565b9150509250929050565b60008060408385031215612e8657612e85612650565b5b6000612e94858286016126a3565b9250506020612ea5858286016126a3565b9150509250929050565b600080600080600060a08688031215612ecb57612eca612650565b5b6000612ed9888289016126a3565b9550506020612eea888289016126a3565b9450506040612efb888289016126d9565b9350506060612f0c888289016126d9565b925050608086013567ffffffffffffffff811115612f2d57612f2c612655565b5b612f3988828901612ac1565b9150509295509295909350565b600060208284031215612f5c57612f5b612650565b5b6000612f6a848285016126a3565b91505092915050565b7f455243313135353a2061646472657373207a65726f206973206e6f742061207660008201527f616c6964206f776e657200000000000000000000000000000000000000000000602082015250565b6000612fcf602a8361284b565b9150612fda82612f73565b604082019050919050565b60006020820190508181036000830152612ffe81612fc2565b9050919050565b7f4e487b7100000000000000000000000000000000000000000000000000000000600052602260045260246000fd5b6000600282049050600182168061304c57607f821691505b60208210810361305f5761305e613005565b5b50919050565b7f455243313135353a2063616c6c6572206973206e6f7420746f6b656e206f776e60008201527f6572206f7220617070726f766564000000000000000000000000000000000000602082015250565b60006130c1602e8361284b565b91506130cc82613065565b604082019050919050565b600060208201905081810360008301526130f0816130b4565b9050919050565b7f4e487b7100000000000000000000000000000000000000000000000000000000600052601160045260246000fd5b6000613131826126b8565b915061313c836126b8565b925082820261314a816126b8565b91508282048414831517613161576131606130f7565b5b5092915050565b7f4e6f7420656e6f75676820455448000000000000000000000000000000000000600082015250565b600061319e600e8361284b565b91506131a982613168565b602082019050919050565b600060208201905081810360008301526131cd81613191565b9050919050565b7f5469636b65742073616c652068617320656e6465640000000000000000000000600082015250565b600061320a60158361284b565b9150613215826131d4565b602082019050919050565b60006020820190508181036000830152613239816131fd565b9050919050565b7f4e487b7100000000000000000000000000000000000000000000000000000000600052603260045260246000fd5b600061327a826126b8565b91507fffffffffffffffffffffffffffffffffffffffffffffffffffffffffffffffff82036132ac576132ab6130f7565b5b600182019050919050565b7f5469636b65742073616c65206973207374696c6c206f6e000000000000000000600082015250565b60006132ed60178361284b565b91506132f8826132b7565b602082019050919050565b6000602082019050818103600083015261331c816132e0565b9050919050565b7f54686572652773206e6f742045544820746f2077697468647261770000000000600082015250565b6000613359601b8361284b565b915061336482613323565b602082019050919050565b600060208201905081810360008301526133888161334c565b9050919050565b7f43686f6f73652061206c75636b792077696e6e65722031737400000000000000600082015250565b60006133c560198361284b565b91506133d08261338f565b602082019050919050565b600060208201905081810360008301526133f4816133b8565b9050919050565b7f455243313135353a206163636f756e747320616e6420696473206c656e67746860008201527f206d69736d617463680000000000000000000000000000000000000000000000602082015250565b600061345760298361284b565b9150613462826133fb565b604082019050919050565b600060208201905081810360008301526134868161344a565b9050919050565b7f4e6f206f6e652068617320626f75676874207469636b65747300000000000000600082015250565b60006134c360198361284b565b91506134ce8261348d565b602082019050919050565b600060208201905081810360008301526134f2816134b6565b9050919050565b7f4c75636b792077696e6e657220616c72656164792063686f73656e0000000000600082015250565b600061352f601b8361284b565b915061353a826134f9565b602082019050919050565b6000602082019050818103600083015261355e81613522565b9050919050565b6000819050919050565b61358061357b826126b8565b613565565b82525050565b6000613592828561356f565b6020820191506135a2828461356f565b6020820191508190509392505050565b7f4e487b7100000000000000000000000000000000000000000000000000000000600052601260045260246000fd5b60006135ec826126b8565b91506135f7836126b8565b925082613607576136066135b2565b5b828206905092915050565b7f4f776e61626c653a206e6577206f776e657220697320746865207a65726f206160008201527f6464726573730000000000000000000000000000000000000000000000000000602082015250565b600061366e60268361284b565b915061367982613612565b604082019050919050565b6000602082019050818103600083015261369d81613661565b9050919050565b7f455243313135353a2069647320616e6420616d6f756e7473206c656e6774682060008201527f6d69736d61746368000000000000000000000000000000000000000000000000602082015250565b600061370060288361284b565b915061370b826136a4565b604082019050919050565b6000602082019050818103600083015261372f816136f3565b9050919050565b7f455243313135353a207472616e7366657220746f20746865207a65726f20616460008201527f6472657373000000000000000000000000000000000000000000000000000000602082015250565b600061379260258361284b565b915061379d82613736565b604082019050919050565b600060208201905081810360008301526137c181613785565b9050919050565b7f455243313135353a20696e73756666696369656e742062616c616e636520666f60008201527f72207472616e7366657200000000000000000000000000000000000000000000602082015250565b6000613824602a8361284b565b915061382f826137c8565b604082019050919050565b6000602082019050818103600083015261385381613817565b9050919050565b6000613865826126b8565b9150613870836126b8565b9250828201905080821115613888576138876130f7565b5b92915050565b600060408201905081810360008301526138a88185612d83565b905081810360208301526138bc8184612d83565b90509392505050565b7f4f776e61626c653a2063616c6c6572206973206e6f7420746865206f776e6572600082015250565b60006138fb60208361284b565b9150613906826138c5565b602082019050919050565b6000602082019050818103600083015261392a816138ee565b9050919050565b7f455243313135353a2073657474696e6720617070726f76616c2073746174757360008201527f20666f722073656c660000000000000000000000000000000000000000000000602082015250565b600061398d60298361284b565b915061399882613931565b604082019050919050565b600060208201905081810360008301526139bc81613980565b9050919050565b60006040820190506139d8600083018561272e565b6139e5602083018461272e565b9392505050565b600081519050919050565b600082825260208201905092915050565b6000613a13826139ec565b613a1d81856139f7565b9350613a2d81856020860161285c565b613a3681612886565b840191505092915050565b600060a082019050613a566000830188612bbe565b613a636020830187612bbe565b8181036040830152613a758186612d83565b90508181036060830152613a898185612d83565b90508181036080830152613a9d8184613a08565b90509695505050505050565b600081519050613ab881612784565b92915050565b600060208284031215613ad457613ad3612650565b5b6000613ae284828501613aa9565b91505092915050565b60008160e01c9050919050565b600060033d1115613b175760046000803e613b14600051613aeb565b90505b90565b600060443d10613ba757613b2c612646565b60043d036004823e80513d602482011167ffffffffffffffff82111715613b54575050613ba7565b808201805167ffffffffffffffff811115613b725750505050613ba7565b80602083010160043d038501811115613b8f575050505050613ba7565b613b9e82602001850186612926565b82955050505050505b90565b7f455243313135353a207472616e7366657220746f206e6f6e2d4552433131353560008201527f526563656976657220696d706c656d656e746572000000000000000000000000602082015250565b6000613c0660348361284b565b9150613c1182613baa565b604082019050919050565b60006020820190508181036000830152613c3581613bf9565b9050919050565b7f455243313135353a204552433131353552656365697665722072656a6563746560008201527f6420746f6b656e73000000000000000000000000000000000000000000000000602082015250565b6000613c9860288361284b565b9150613ca382613c3c565b604082019050919050565b60006020820190508181036000830152613cc781613c8b565b9050919050565b7f455243313135353a206d696e7420746f20746865207a65726f2061646472657360008201527f7300000000000000000000000000000000000000000000000000000000000000602082015250565b6000613d2a60218361284b565b9150613d3582613cce565b604082019050919050565b60006020820190508181036000830152613d5981613d1d565b9050919050565b600060a082019050613d756000830188612bbe565b613d826020830187612bbe565b613d8f604083018661272e565b613d9c606083018561272e565b8181036080830152613dae8184613a08565b9050969550505050505056fea2646970667358221220487ec077498b3eff28fb5b515c97bd5c8610b2b21f76d72fb4b4fdab3e5ded5164736f6c63430008120033a26469706673582212208bc22e5b4e64075ca366f1d8b80fef082e21e246390b15a2e2e3ff514b14ee7964736f6c63430008120033",
  "linkReferences": {},
  "deployedLinkReferences": {}
}