{
  "_format": "hh-sol-artifact-1",
  "contractName": "EventContract",
  "sourceName": "contracts/Event.sol",
  "abi": [
    {
      "inputs": [
        {
          "internalType": "string",
          "name": "_nameOfEvent",
          "type": "string"
        },
        {
          "internalType": "uint256",
          "name": "_endTicketSale",
          "type": "uint256"
        },
        {
          "internalType": "string",
          "name": "_aboutEvent",
          "type": "string"
        },
        {
          "internalType": "uint256",
          "name": "_priceForEvent",
          "type": "uint256"
        },
        {
          "internalType": "string",
          "name": "_uri",
          "type": "string"
        }
      ],
      "stateMutability": "nonpayable",
      "type": "constructor"
    },
    {
      "anonymous": false,
      "inputs": [
        {
          "indexed": true,
          "internalType": "address",
          "name": "account",
          "type": "address"
        },
        {
          "indexed": true,
          "internalType": "address",
          "name": "operator",
          "type": "address"
        },
        {
          "indexed": false,
          "internalType": "bool",
          "name": "approved",
          "type": "bool"
        }
      ],
      "name": "ApprovalForAll",
      "type": "event"
    },
    {
      "anonymous": false,
      "inputs": [
        {
          "indexed": true,
          "internalType": "address",
          "name": "previousOwner",
          "type": "address"
        },
        {
          "indexed": true,
          "internalType": "address",
          "name": "newOwner",
          "type": "address"
        }
      ],
      "name": "OwnershipTransferred",
      "type": "event"
    },
    {
      "anonymous": false,
      "inputs": [
        {
          "indexed": true,
          "internalType": "address",
          "name": "operator",
          "type": "address"
        },
        {
          "indexed": true,
          "internalType": "address",
          "name": "from",
          "type": "address"
        },
        {
          "indexed": true,
          "internalType": "address",
          "name": "to",
          "type": "address"
        },
        {
          "indexed": false,
          "internalType": "uint256[]",
          "name": "ids",
          "type": "uint256[]"
        },
        {
          "indexed": false,
          "internalType": "uint256[]",
          "name": "values",
          "type": "uint256[]"
        }
      ],
      "name": "TransferBatch",
      "type": "event"
    },
    {
      "anonymous": false,
      "inputs": [
        {
          "indexed": true,
          "internalType": "address",
          "name": "operator",
          "type": "address"
        },
        {
          "indexed": true,
          "internalType": "address",
          "name": "from",
          "type": "address"
        },
        {
          "indexed": true,
          "internalType": "address",
          "name": "to",
          "type": "address"
        },
        {
          "indexed": false,
          "internalType": "uint256",
          "name": "id",
          "type": "uint256"
        },
        {
          "indexed": false,
          "internalType": "uint256",
          "name": "value",
          "type": "uint256"
        }
      ],
      "name": "TransferSingle",
      "type": "event"
    },
    {
      "anonymous": false,
      "inputs": [
        {
          "indexed": false,
          "internalType": "string",
          "name": "value",
          "type": "string"
        },
        {
          "indexed": true,
          "internalType": "uint256",
          "name": "id",
          "type": "uint256"
        }
      ],
      "name": "URI",
      "type": "event"
    },
    {
      "inputs": [],
      "name": "aboutEvent",
      "outputs": [
        {
          "internalType": "string",
          "name": "",
          "type": "string"
        }
      ],
      "stateMutability": "view",
      "type": "function"
    },
    {
      "inputs": [
        {
          "internalType": "uint256",
          "name": "",
          "type": "uint256"
        }
      ],
      "name": "addressList",
      "outputs": [
        {
          "internalType": "address",
          "name": "",
          "type": "address"
        }
      ],
      "stateMutability": "view",
      "type": "function"
    },
    {
      "inputs": [
        {
          "internalType": "address",
          "name": "account",
          "type": "address"
        },
        {
          "internalType": "uint256",
          "name": "id",
          "type": "uint256"
        }
      ],
      "name": "balanceOf",
      "outputs": [
        {
          "internalType": "uint256",
          "name": "",
          "type": "uint256"
        }
      ],
      "stateMutability": "view",
      "type": "function"
    },
    {
      "inputs": [
        {
          "internalType": "address[]",
          "name": "accounts",
          "type": "address[]"
        },
        {
          "internalType": "uint256[]",
          "name": "ids",
          "type": "uint256[]"
        }
      ],
      "name": "balanceOfBatch",
      "outputs": [
        {
          "internalType": "uint256[]",
          "name": "",
          "type": "uint256[]"
        }
      ],
      "stateMutability": "view",
      "type": "function"
    },
    {
      "inputs": [
        {
          "internalType": "uint256",
          "name": "_amount",
          "type": "uint256"
        }
      ],
      "name": "buyTickets",
      "outputs": [],
      "stateMutability": "payable",
      "type": "function"
    },
    {
      "inputs": [],
      "name": "chooseLuckyWinner",
      "outputs": [
        {
          "internalType": "address",
          "name": "",
          "type": "address"
        }
      ],
      "stateMutability": "nonpayable",
      "type": "function"
    },
    {
      "inputs": [],
      "name": "endTicketSale",
      "outputs": [
        {
          "internalType": "uint256",
          "name": "",
          "type": "uint256"
        }
      ],
      "stateMutability": "view",
      "type": "function"
    },
    {
      "inputs": [],
      "name": "getCurrentTimestamp",
      "outputs": [
        {
          "internalType": "uint256",
          "name": "",
          "type": "uint256"
        }
      ],
      "stateMutability": "view",
      "type": "function"
    },
    {
      "inputs": [],
      "name": "getLuckyWinnerAddress",
      "outputs": [
        {
          "internalType": "address",
          "name": "",
          "type": "address"
        }
      ],
      "stateMutability": "view",
      "type": "function"
    },
    {
      "inputs": [],
      "name": "getTicketBalance",
      "outputs": [
        {
          "internalType": "uint256",
          "name": "",
          "type": "uint256"
        }
      ],
      "stateMutability": "view",
      "type": "function"
    },
    {
      "inputs": [
        {
          "internalType": "address",
          "name": "account",
          "type": "address"
        },
        {
          "internalType": "address",
          "name": "operator",
          "type": "address"
        }
      ],
      "name": "isApprovedForAll",
      "outputs": [
        {
          "internalType": "bool",
          "name": "",
          "type": "bool"
        }
      ],
      "stateMutability": "view",
      "type": "function"
    },
    {
      "inputs": [],
      "name": "luckyWinner",
      "outputs": [
        {
          "internalType": "address",
          "name": "",
          "type": "address"
        }
      ],
      "stateMutability": "view",
      "type": "function"
    },
    {
      "inputs": [],
      "name": "luckyWinnerChosen",
      "outputs": [
        {
          "internalType": "bool",
          "name": "",
          "type": "bool"
        }
      ],
      "stateMutability": "view",
      "type": "function"
    },
    {
      "inputs": [],
      "name": "nameOfEvent",
      "outputs": [
        {
          "internalType": "string",
          "name": "",
          "type": "string"
        }
      ],
      "stateMutability": "view",
      "type": "function"
    },
    {
      "inputs": [],
      "name": "owner",
      "outputs": [
        {
          "internalType": "address",
          "name": "",
          "type": "address"
        }
      ],
      "stateMutability": "view",
      "type": "function"
    },
    {
      "inputs": [],
      "name": "priceForEvent",
      "outputs": [
        {
          "internalType": "uint256",
          "name": "",
          "type": "uint256"
        }
      ],
      "stateMutability": "view",
      "type": "function"
    },
    {
      "inputs": [],
      "name": "renounceOwnership",
      "outputs": [],
      "stateMutability": "nonpayable",
      "type": "function"
    },
    {
      "inputs": [
        {
          "internalType": "address",
          "name": "from",
          "type": "address"
        },
        {
          "internalType": "address",
          "name": "to",
          "type": "address"
        },
        {
          "internalType": "uint256[]",
          "name": "ids",
          "type": "uint256[]"
        },
        {
          "internalType": "uint256[]",
          "name": "amounts",
          "type": "uint256[]"
        },
        {
          "internalType": "bytes",
          "name": "data",
          "type": "bytes"
        }
      ],
      "name": "safeBatchTransferFrom",
      "outputs": [],
      "stateMutability": "nonpayable",
      "type": "function"
    },
    {
      "inputs": [
        {
          "internalType": "address",
          "name": "from",
          "type": "address"
        },
        {
          "internalType": "address",
          "name": "to",
          "type": "address"
        },
        {
          "internalType": "uint256",
          "name": "id",
          "type": "uint256"
        },
        {
          "internalType": "uint256",
          "name": "amount",
          "type": "uint256"
        },
        {
          "internalType": "bytes",
          "name": "data",
          "type": "bytes"
        }
      ],
      "name": "safeTransferFrom",
      "outputs": [],
      "stateMutability": "nonpayable",
      "type": "function"
    },
    {
      "inputs": [
        {
          "internalType": "address",
          "name": "operator",
          "type": "address"
        },
        {
          "internalType": "bool",
          "name": "approved",
          "type": "bool"
        }
      ],
      "name": "setApprovalForAll",
      "outputs": [],
      "stateMutability": "nonpayable",
      "type": "function"
    },
    {
      "inputs": [],
      "name": "startTicketSale",
      "outputs": [
        {
          "internalType": "uint256",
          "name": "",
          "type": "uint256"
        }
      ],
      "stateMutability": "view",
      "type": "function"
    },
    {
      "inputs": [
        {
          "internalType": "bytes4",
          "name": "interfaceId",
          "type": "bytes4"
        }
      ],
      "name": "supportsInterface",
      "outputs": [
        {
          "internalType": "bool",
          "name": "",
          "type": "bool"
        }
      ],
      "stateMutability": "view",
      "type": "function"
    },
    {
      "inputs": [
        {
          "internalType": "address",
          "name": "newOwner",
          "type": "address"
        }
      ],
      "name": "transferOwnership",
      "outputs": [],
      "stateMutability": "nonpayable",
      "type": "function"
    },
    {
      "inputs": [
        {
          "internalType": "uint256",
          "name": "",
          "type": "uint256"
        }
      ],
      "name": "uri",
      "outputs": [
        {
          "internalType": "string",
          "name": "",
          "type": "string"
        }
      ],
      "stateMutability": "view",
      "type": "function"
    },
    {
      "inputs": [],
      "name": "uri",
      "outputs": [
        {
          "internalType": "string",
          "name": "",
          "type": "string"
        }
      ],
      "stateMutability": "view",
      "type": "function"
    },
    {
      "inputs": [],
      "name": "withdraw",
      "outputs": [],
      "stateMutability": "nonpayable",
      "type": "function"
    }
  ],
  "bytecode": "0x6080604052600960405160200162000018919062000312565b604051602081830303815290604052600a908162000037919062000541565b506000600c60006101000a81548160ff0219169083151502179055503480156200006057600080fd5b5060405162004556380380620045568339818101604052810190620000869190620007bd565b8062000098816200011c60201b60201c565b50620000b9620000ad6200013160201b60201c565b6200013960201b60201c565b8460049081620000ca9190620008fd565b50426005819055508342620000e0919062000a13565b6006819055508260079081620000f79190620008fd565b50816008819055508060099081620001109190620008fd565b50505050505062000a4e565b80600290816200012d9190620008fd565b5050565b600033905090565b6000600360009054906101000a900473ffffffffffffffffffffffffffffffffffffffff16905081600360006101000a81548173ffffffffffffffffffffffffffffffffffffffff021916908373ffffffffffffffffffffffffffffffffffffffff1602179055508173ffffffffffffffffffffffffffffffffffffffff168173ffffffffffffffffffffffffffffffffffffffff167f8be0079c531659141344cd1fd0a4f28419497f9722a3daafe3b4186f6b6457e060405160405180910390a35050565b7f4e487b7100000000000000000000000000000000000000000000000000000000600052602260045260246000fd5b600060028204905060018216806200024757607f821691505b6020821081036200025d576200025c620001ff565b5b50919050565b600081905092915050565b60008190508160005260206000209050919050565b6000815462000292816200022e565b6200029e818662000263565b94506001821660008114620002bc5760018114620002d25762000309565b60ff198316865281151582028601935062000309565b620002dd856200026e565b60005b838110156200030157815481890152600182019150602081019050620002e0565b838801955050505b50505092915050565b600062000320828462000283565b915081905092915050565b600081519050919050565b7f4e487b7100000000000000000000000000000000000000000000000000000000600052604160045260246000fd5b60008190508160005260206000209050919050565b60006020601f8301049050919050565b600082821b905092915050565b600060088302620003c97fffffffffffffffffffffffffffffffffffffffffffffffffffffffffffffffff826200038a565b620003d586836200038a565b95508019841693508086168417925050509392505050565b6000819050919050565b6000819050919050565b6000620004226200041c6200041684620003ed565b620003f7565b620003ed565b9050919050565b6000819050919050565b6200043e8362000401565b620004566200044d8262000429565b84845462000397565b825550505050565b600090565b6200046d6200045e565b6200047a81848462000433565b505050565b5b81811015620004a2576200049660008262000463565b60018101905062000480565b5050565b601f821115620004f157620004bb8162000365565b620004c6846200037a565b81016020851015620004d6578190505b620004ee620004e5856200037a565b8301826200047f565b50505b505050565b600082821c905092915050565b60006200051660001984600802620004f6565b1980831691505092915050565b600062000531838362000503565b9150826002028217905092915050565b6200054c826200032b565b67ffffffffffffffff81111562000568576200056762000336565b5b6200057482546200022e565b62000581828285620004a6565b600060209050601f831160018114620005b95760008415620005a4578287015190505b620005b0858262000523565b86555062000620565b601f198416620005c98662000365565b60005b82811015620005f357848901518255600182019150602085019450602081019050620005cc565b868310156200061357848901516200060f601f89168262000503565b8355505b6001600288020188555050505b505050505050565b6000604051905090565b600080fd5b600080fd5b600080fd5b600080fd5b6000601f19601f8301169050919050565b620006628262000646565b810181811067ffffffffffffffff8211171562000684576200068362000336565b5b80604052505050565b60006200069962000628565b9050620006a7828262000657565b919050565b600067ffffffffffffffff821115620006ca57620006c962000336565b5b620006d58262000646565b9050602081019050919050565b60005b8381101562000702578082015181840152602081019050620006e5565b60008484015250505050565b6000620007256200071f84620006ac565b6200068d565b90508281526020810184848401111562000744576200074362000641565b5b62000751848285620006e2565b509392505050565b600082601f8301126200077157620007706200063c565b5b8151620007838482602086016200070e565b91505092915050565b6200079781620003ed565b8114620007a357600080fd5b50565b600081519050620007b7816200078c565b92915050565b600080600080600060a08688031215620007dc57620007db62000632565b5b600086015167ffffffffffffffff811115620007fd57620007fc62000637565b5b6200080b8882890162000759565b95505060206200081e88828901620007a6565b945050604086015167ffffffffffffffff81111562000842576200084162000637565b5b620008508882890162000759565b93505060606200086388828901620007a6565b925050608086015167ffffffffffffffff81111562000887576200088662000637565b5b620008958882890162000759565b9150509295509295909350565b600081519050919050565b601f821115620008f857620008c2816200026e565b620008cd846200037a565b81016020851015620008dd578190505b620008f5620008ec856200037a565b8301826200047f565b50505b505050565b6200090882620008a2565b67ffffffffffffffff81111562000924576200092362000336565b5b6200093082546200022e565b6200093d828285620008ad565b600060209050601f83116001811462000975576000841562000960578287015190505b6200096c858262000523565b865550620009dc565b601f19841662000985866200026e565b60005b82811015620009af5784890151825560018201915060208501945060208101905062000988565b86831015620009cf5784890151620009cb601f89168262000503565b8355505b6001600288020188555050505b505050505050565b7f4e487b7100000000000000000000000000000000000000000000000000000000600052601160045260246000fd5b600062000a2082620003ed565b915062000a2d83620003ed565b925082820190508082111562000a485762000a47620009e4565b5b92915050565b613af88062000a5e6000396000f3fe6080604052600436106101805760003560e01c80636c9230db116100d1578063b810fb431161008a578063eac989f811610064578063eac989f814610568578063f242432a14610593578063f2fde38b146105bc578063fcf488a9146105e557610180565b8063b810fb43146104c3578063bfbfc1c814610500578063e985e9c51461052b57610180565b80636c9230db146103d7578063715018a6146104025780637df4ae491461041957806380d3cd4e146104445780638da5cb5b1461046f578063a22cb4651461049a57610180565b806348c724ed1161013e5780635997e97b116101185780635997e97b1461032b578063615111421461035657806369c1a901146103815780636bd11591146103ac57610180565b806348c724ed146102985780634a34511e146102c35780634e1273f4146102ee57610180565b8062fdd58e1461018557806301ffc9a7146101c25780630e89341c146101ff5780632eb2c2d61461023c5780632f366637146102655780633ccfd60b14610281575b600080fd5b34801561019157600080fd5b506101ac60048036038101906101a791906123f6565b610610565b6040516101b99190612445565b60405180910390f35b3480156101ce57600080fd5b506101e960048036038101906101e491906124b8565b6106d8565b6040516101f69190612500565b60405180910390f35b34801561020b57600080fd5b506102266004803603810190610221919061251b565b6107ba565b60405161023391906125d8565b60405180910390f35b34801561024857600080fd5b50610263600480360381019061025e91906127f7565b61084e565b005b61027f600480360381019061027a919061251b565b6108ef565b005b34801561028d57600080fd5b50610296610b26565b005b3480156102a457600080fd5b506102ad610c59565b6040516102ba9190612445565b60405180910390f35b3480156102cf57600080fd5b506102d8610c5f565b6040516102e591906128d5565b60405180910390f35b3480156102fa57600080fd5b50610315600480360381019061031091906129b3565b610c89565b6040516103229190612ae9565b60405180910390f35b34801561033757600080fd5b50610340610da2565b60405161034d9190612445565b60405180910390f35b34801561036257600080fd5b5061036b610db4565b6040516103789190612445565b60405180910390f35b34801561038d57600080fd5b50610396610dba565b6040516103a391906125d8565b60405180910390f35b3480156103b857600080fd5b506103c1610e48565b6040516103ce91906128d5565b60405180910390f35b3480156103e357600080fd5b506103ec6110a5565b6040516103f99190612445565b60405180910390f35b34801561040e57600080fd5b506104176110ad565b005b34801561042557600080fd5b5061042e6110c1565b60405161043b9190612445565b60405180910390f35b34801561045057600080fd5b506104596110c7565b60405161046691906125d8565b60405180910390f35b34801561047b57600080fd5b50610484611155565b60405161049191906128d5565b60405180910390f35b3480156104a657600080fd5b506104c160048036038101906104bc9190612b37565b61117f565b005b3480156104cf57600080fd5b506104ea60048036038101906104e5919061251b565b611195565b6040516104f791906128d5565b60405180910390f35b34801561050c57600080fd5b506105156111d4565b6040516105229190612500565b60405180910390f35b34801561053757600080fd5b50610552600480360381019061054d9190612b77565b6111e7565b60405161055f9190612500565b60405180910390f35b34801561057457600080fd5b5061057d61127b565b60405161058a91906125d8565b60405180910390f35b34801561059f57600080fd5b506105ba60048036038101906105b59190612bb7565b611309565b005b3480156105c857600080fd5b506105e360048036038101906105de9190612c4e565b6113aa565b005b3480156105f157600080fd5b506105fa61142d565b60405161060791906128d5565b60405180910390f35b60008073ffffffffffffffffffffffffffffffffffffffff168373ffffffffffffffffffffffffffffffffffffffff1603610680576040517f08c379a000000000000000000000000000000000000000000000000000000000815260040161067790612ced565b60405180910390fd5b60008083815260200190815260200160002060008473ffffffffffffffffffffffffffffffffffffffff1673ffffffffffffffffffffffffffffffffffffffff16815260200190815260200160002054905092915050565b60007fd9b67a26000000000000000000000000000000000000000000000000000000007bffffffffffffffffffffffffffffffffffffffffffffffffffffffff1916827bffffffffffffffffffffffffffffffffffffffffffffffffffffffff191614806107a357507f0e89341c000000000000000000000000000000000000000000000000000000007bffffffffffffffffffffffffffffffffffffffffffffffffffffffff1916827bffffffffffffffffffffffffffffffffffffffffffffffffffffffff1916145b806107b357506107b282611453565b5b9050919050565b6060600280546107c990612d3c565b80601f01602080910402602001604051908101604052809291908181526020018280546107f590612d3c565b80156108425780601f1061081757610100808354040283529160200191610842565b820191906000526020600020905b81548152906001019060200180831161082557829003601f168201915b50505050509050919050565b6108566114bd565b73ffffffffffffffffffffffffffffffffffffffff168573ffffffffffffffffffffffffffffffffffffffff16148061089c575061089b856108966114bd565b6111e7565b5b6108db576040517f08c379a00000000000000000000000000000000000000000000000000000000081526004016108d290612ddf565b60405180910390fd5b6108e885858585856114c5565b5050505050565b806008546108fd9190612e2e565b34101561093f576040517f08c379a000000000000000000000000000000000000000000000000000000000815260040161093690612ebc565b60405180910390fd5b6006544210610983576040517f08c379a000000000000000000000000000000000000000000000000000000000815260040161097a90612f28565b60405180910390fd5b610a1a33600183600a805461099790612d3c565b80601f01602080910402602001604051908101604052809291908181526020018280546109c390612d3c565b8015610a105780601f106109e557610100808354040283529160200191610a10565b820191906000526020600020905b8154815290600101906020018083116109f357829003601f168201915b50505050506117e6565b6000805b600b80549050811015610ab8573373ffffffffffffffffffffffffffffffffffffffff16600b8281548110610a5657610a55612f48565b5b9060005260206000200160009054906101000a900473ffffffffffffffffffffffffffffffffffffffff1673ffffffffffffffffffffffffffffffffffffffff1603610aa55760019150610ab8565b8080610ab090612f77565b915050610a1e565b5080610b2257600b339080600181540180825580915050600190039060005260206000200160009091909190916101000a81548173ffffffffffffffffffffffffffffffffffffffff021916908373ffffffffffffffffffffffffffffffffffffffff1602179055505b5050565b600654421015610b6b576040517f08c379a0000000000000000000000000000000000000000000000000000000008152600401610b629061300b565b60405180910390fd5b610b736117f8565b600047905060008111610bbb576040517f08c379a0000000000000000000000000000000000000000000000000000000008152600401610bb290613077565b60405180910390fd5b60011515600c60009054906101000a900460ff16151514610c11576040517f08c379a0000000000000000000000000000000000000000000000000000000008152600401610c08906130e3565b60405180910390fd5b610c19611155565b73ffffffffffffffffffffffffffffffffffffffff166108fc479081150290604051600060405180830381858888f19350505050610c5657600080fd5b50565b60055481565b6000600c60019054906101000a900473ffffffffffffffffffffffffffffffffffffffff16905090565b60608151835114610ccf576040517f08c379a0000000000000000000000000000000000000000000000000000000008152600401610cc690613175565b60405180910390fd5b6000835167ffffffffffffffff811115610cec57610ceb6125ff565b5b604051908082528060200260200182016040528015610d1a5781602001602082028036833780820191505090505b50905060005b8451811015610d9757610d67858281518110610d3f57610d3e612f48565b5b6020026020010151858381518110610d5a57610d59612f48565b5b6020026020010151610610565b828281518110610d7a57610d79612f48565b5b60200260200101818152505080610d9090612f77565b9050610d20565b508091505092915050565b6000610daf336001610610565b905090565b60085481565b60048054610dc790612d3c565b80601f0160208091040260200160405190810160405280929190818152602001828054610df390612d3c565b8015610e405780601f10610e1557610100808354040283529160200191610e40565b820191906000526020600020905b815481529060010190602001808311610e2357829003601f168201915b505050505081565b6000600654421015610e8f576040517f08c379a0000000000000000000000000000000000000000000000000000000008152600401610e869061300b565b60405180910390fd5b6000600b8054905011610ed7576040517f08c379a0000000000000000000000000000000000000000000000000000000008152600401610ece906131e1565b60405180910390fd5b600c60009054906101000a900460ff1615610f27576040517f08c379a0000000000000000000000000000000000000000000000000000000008152600401610f1e9061324d565b60405180910390fd5b6000600b805490504244604051602001610f4292919061328e565b6040516020818303038152906040528051906020012060001c610f6591906132e9565b90506000600b8281548110610f7d57610f7c612f48565b5b9060005260206000200160009054906101000a900473ffffffffffffffffffffffffffffffffffffffff16905080600c60016101000a81548173ffffffffffffffffffffffffffffffffffffffff021916908373ffffffffffffffffffffffffffffffffffffffff16021790555061108281600180600a8054610fff90612d3c565b80601f016020809104026020016040519081016040528092919081815260200182805461102b90612d3c565b80156110785780601f1061104d57610100808354040283529160200191611078565b820191906000526020600020905b81548152906001019060200180831161105b57829003601f168201915b50505050506117e6565b6001600c60006101000a81548160ff021916908315150217905550809250505090565b600042905090565b6110b56117f8565b6110bf6000611876565b565b60065481565b600780546110d490612d3c565b80601f016020809104026020016040519081016040528092919081815260200182805461110090612d3c565b801561114d5780601f106111225761010080835404028352916020019161114d565b820191906000526020600020905b81548152906001019060200180831161113057829003601f168201915b505050505081565b6000600360009054906101000a900473ffffffffffffffffffffffffffffffffffffffff16905090565b61119161118a6114bd565b838361193c565b5050565b600b81815481106111a557600080fd5b906000526020600020016000915054906101000a900473ffffffffffffffffffffffffffffffffffffffff1681565b600c60009054906101000a900460ff1681565b6000600160008473ffffffffffffffffffffffffffffffffffffffff1673ffffffffffffffffffffffffffffffffffffffff16815260200190815260200160002060008373ffffffffffffffffffffffffffffffffffffffff1673ffffffffffffffffffffffffffffffffffffffff16815260200190815260200160002060009054906101000a900460ff16905092915050565b6009805461128890612d3c565b80601f01602080910402602001604051908101604052809291908181526020018280546112b490612d3c565b80156113015780601f106112d657610100808354040283529160200191611301565b820191906000526020600020905b8154815290600101906020018083116112e457829003601f168201915b505050505081565b6113116114bd565b73ffffffffffffffffffffffffffffffffffffffff168573ffffffffffffffffffffffffffffffffffffffff1614806113575750611356856113516114bd565b6111e7565b5b611396576040517f08c379a000000000000000000000000000000000000000000000000000000000815260040161138d90612ddf565b60405180910390fd5b6113a38585858585611aa8565b5050505050565b6113b26117f8565b600073ffffffffffffffffffffffffffffffffffffffff168173ffffffffffffffffffffffffffffffffffffffff1603611421576040517f08c379a00000000000000000000000000000000000000000000000000000000081526004016114189061338c565b60405180910390fd5b61142a81611876565b50565b600c60019054906101000a900473ffffffffffffffffffffffffffffffffffffffff1681565b60007f01ffc9a7000000000000000000000000000000000000000000000000000000007bffffffffffffffffffffffffffffffffffffffffffffffffffffffff1916827bffffffffffffffffffffffffffffffffffffffffffffffffffffffff1916149050919050565b600033905090565b8151835114611509576040517f08c379a00000000000000000000000000000000000000000000000000000000081526004016115009061341e565b60405180910390fd5b600073ffffffffffffffffffffffffffffffffffffffff168473ffffffffffffffffffffffffffffffffffffffff1603611578576040517f08c379a000000000000000000000000000000000000000000000000000000000815260040161156f906134b0565b60405180910390fd5b60006115826114bd565b9050611592818787878787611d43565b60005b84518110156117435760008582815181106115b3576115b2612f48565b5b6020026020010151905060008583815181106115d2576115d1612f48565b5b60200260200101519050600080600084815260200190815260200160002060008b73ffffffffffffffffffffffffffffffffffffffff1673ffffffffffffffffffffffffffffffffffffffff16815260200190815260200160002054905081811015611673576040517f08c379a000000000000000000000000000000000000000000000000000000000815260040161166a90613542565b60405180910390fd5b81810360008085815260200190815260200160002060008c73ffffffffffffffffffffffffffffffffffffffff1673ffffffffffffffffffffffffffffffffffffffff168152602001908152602001600020819055508160008085815260200190815260200160002060008b73ffffffffffffffffffffffffffffffffffffffff1673ffffffffffffffffffffffffffffffffffffffff16815260200190815260200160002060008282546117289190613562565b925050819055505050508061173c90612f77565b9050611595565b508473ffffffffffffffffffffffffffffffffffffffff168673ffffffffffffffffffffffffffffffffffffffff168273ffffffffffffffffffffffffffffffffffffffff167f4a39dc06d4c0dbc64b70af90fd698a233a518aa5d07e595d983b8c0526c8f7fb87876040516117ba929190613596565b60405180910390a46117d0818787878787611d4b565b6117de818787878787611d53565b505050505050565b6117f284848484611f2a565b50505050565b6118006114bd565b73ffffffffffffffffffffffffffffffffffffffff1661181e611155565b73ffffffffffffffffffffffffffffffffffffffff1614611874576040517f08c379a000000000000000000000000000000000000000000000000000000000815260040161186b90613619565b60405180910390fd5b565b6000600360009054906101000a900473ffffffffffffffffffffffffffffffffffffffff16905081600360006101000a81548173ffffffffffffffffffffffffffffffffffffffff021916908373ffffffffffffffffffffffffffffffffffffffff1602179055508173ffffffffffffffffffffffffffffffffffffffff168173ffffffffffffffffffffffffffffffffffffffff167f8be0079c531659141344cd1fd0a4f28419497f9722a3daafe3b4186f6b6457e060405160405180910390a35050565b8173ffffffffffffffffffffffffffffffffffffffff168373ffffffffffffffffffffffffffffffffffffffff16036119aa576040517f08c379a00000000000000000000000000000000000000000000000000000000081526004016119a1906136ab565b60405180910390fd5b80600160008573ffffffffffffffffffffffffffffffffffffffff1673ffffffffffffffffffffffffffffffffffffffff16815260200190815260200160002060008473ffffffffffffffffffffffffffffffffffffffff1673ffffffffffffffffffffffffffffffffffffffff16815260200190815260200160002060006101000a81548160ff0219169083151502179055508173ffffffffffffffffffffffffffffffffffffffff168373ffffffffffffffffffffffffffffffffffffffff167f17307eab39ab6107e8899845ad3d59bd9653f200f220920489ca2b5937696c3183604051611a9b9190612500565b60405180910390a3505050565b600073ffffffffffffffffffffffffffffffffffffffff168473ffffffffffffffffffffffffffffffffffffffff1603611b17576040517f08c379a0000000000000000000000000000000000000000000000000000000008152600401611b0e906134b0565b60405180910390fd5b6000611b216114bd565b90506000611b2e856120da565b90506000611b3b856120da565b9050611b4b838989858589611d43565b600080600088815260200190815260200160002060008a73ffffffffffffffffffffffffffffffffffffffff1673ffffffffffffffffffffffffffffffffffffffff16815260200190815260200160002054905085811015611be2576040517f08c379a0000000000000000000000000000000000000000000000000000000008152600401611bd990613542565b60405180910390fd5b85810360008089815260200190815260200160002060008b73ffffffffffffffffffffffffffffffffffffffff1673ffffffffffffffffffffffffffffffffffffffff168152602001908152602001600020819055508560008089815260200190815260200160002060008a73ffffffffffffffffffffffffffffffffffffffff1673ffffffffffffffffffffffffffffffffffffffff1681526020019081526020016000206000828254611c979190613562565b925050819055508773ffffffffffffffffffffffffffffffffffffffff168973ffffffffffffffffffffffffffffffffffffffff168573ffffffffffffffffffffffffffffffffffffffff167fc3d58168c5ae7397731d063d5bbf3d657854427343f4c083240f7aacaa2d0f628a8a604051611d149291906136cb565b60405180910390a4611d2a848a8a86868a611d4b565b611d38848a8a8a8a8a612154565b505050505050505050565b505050505050565b505050505050565b611d728473ffffffffffffffffffffffffffffffffffffffff1661232b565b15611f22578373ffffffffffffffffffffffffffffffffffffffff1663bc197c8187878686866040518663ffffffff1660e01b8152600401611db8959493929190613749565b6020604051808303816000875af1925050508015611df457506040513d601f19601f82011682018060405250810190611df191906137c6565b60015b611e9957611e00613800565b806308c379a003611e5c5750611e14613822565b80611e1f5750611e5e565b806040517f08c379a0000000000000000000000000000000000000000000000000000000008152600401611e5391906125d8565b60405180910390fd5b505b6040517f08c379a0000000000000000000000000000000000000000000000000000000008152600401611e9090613924565b60405180910390fd5b63bc197c8160e01b7bffffffffffffffffffffffffffffffffffffffffffffffffffffffff1916817bffffffffffffffffffffffffffffffffffffffffffffffffffffffff191614611f20576040517f08c379a0000000000000000000000000000000000000000000000000000000008152600401611f17906139b6565b60405180910390fd5b505b505050505050565b600073ffffffffffffffffffffffffffffffffffffffff168473ffffffffffffffffffffffffffffffffffffffff1603611f99576040517f08c379a0000000000000000000000000000000000000000000000000000000008152600401611f9090613a48565b60405180910390fd5b6000611fa36114bd565b90506000611fb0856120da565b90506000611fbd856120da565b9050611fce83600089858589611d43565b8460008088815260200190815260200160002060008973ffffffffffffffffffffffffffffffffffffffff1673ffffffffffffffffffffffffffffffffffffffff168152602001908152602001600020600082825461202d9190613562565b925050819055508673ffffffffffffffffffffffffffffffffffffffff16600073ffffffffffffffffffffffffffffffffffffffff168473ffffffffffffffffffffffffffffffffffffffff167fc3d58168c5ae7397731d063d5bbf3d657854427343f4c083240f7aacaa2d0f6289896040516120ab9291906136cb565b60405180910390a46120c283600089858589611d4b565b6120d183600089898989612154565b50505050505050565b60606000600167ffffffffffffffff8111156120f9576120f86125ff565b5b6040519080825280602002602001820160405280156121275781602001602082028036833780820191505090505b509050828160008151811061213f5761213e612f48565b5b60200260200101818152505080915050919050565b6121738473ffffffffffffffffffffffffffffffffffffffff1661232b565b15612323578373ffffffffffffffffffffffffffffffffffffffff1663f23a6e6187878686866040518663ffffffff1660e01b81526004016121b9959493929190613a68565b6020604051808303816000875af19250505080156121f557506040513d601f19601f820116820180604052508101906121f291906137c6565b60015b61229a57612201613800565b806308c379a00361225d5750612215613822565b80612220575061225f565b806040517f08c379a000000000000000000000000000000000000000000000000000000000815260040161225491906125d8565b60405180910390fd5b505b6040517f08c379a000000000000000000000000000000000000000000000000000000000815260040161229190613924565b60405180910390fd5b63f23a6e6160e01b7bffffffffffffffffffffffffffffffffffffffffffffffffffffffff1916817bffffffffffffffffffffffffffffffffffffffffffffffffffffffff191614612321576040517f08c379a0000000000000000000000000000000000000000000000000000000008152600401612318906139b6565b60405180910390fd5b505b505050505050565b6000808273ffffffffffffffffffffffffffffffffffffffff163b119050919050565b6000604051905090565b600080fd5b600080fd5b600073ffffffffffffffffffffffffffffffffffffffff82169050919050565b600061238d82612362565b9050919050565b61239d81612382565b81146123a857600080fd5b50565b6000813590506123ba81612394565b92915050565b6000819050919050565b6123d3816123c0565b81146123de57600080fd5b50565b6000813590506123f0816123ca565b92915050565b6000806040838503121561240d5761240c612358565b5b600061241b858286016123ab565b925050602061242c858286016123e1565b9150509250929050565b61243f816123c0565b82525050565b600060208201905061245a6000830184612436565b92915050565b60007fffffffff0000000000000000000000000000000000000000000000000000000082169050919050565b61249581612460565b81146124a057600080fd5b50565b6000813590506124b28161248c565b92915050565b6000602082840312156124ce576124cd612358565b5b60006124dc848285016124a3565b91505092915050565b60008115159050919050565b6124fa816124e5565b82525050565b600060208201905061251560008301846124f1565b92915050565b60006020828403121561253157612530612358565b5b600061253f848285016123e1565b91505092915050565b600081519050919050565b600082825260208201905092915050565b60005b83811015612582578082015181840152602081019050612567565b60008484015250505050565b6000601f19601f8301169050919050565b60006125aa82612548565b6125b48185612553565b93506125c4818560208601612564565b6125cd8161258e565b840191505092915050565b600060208201905081810360008301526125f2818461259f565b905092915050565b600080fd5b7f4e487b7100000000000000000000000000000000000000000000000000000000600052604160045260246000fd5b6126378261258e565b810181811067ffffffffffffffff82111715612656576126556125ff565b5b80604052505050565b600061266961234e565b9050612675828261262e565b919050565b600067ffffffffffffffff821115612695576126946125ff565b5b602082029050602081019050919050565b600080fd5b60006126be6126b98461267a565b61265f565b905080838252602082019050602084028301858111156126e1576126e06126a6565b5b835b8181101561270a57806126f688826123e1565b8452602084019350506020810190506126e3565b5050509392505050565b600082601f830112612729576127286125fa565b5b81356127398482602086016126ab565b91505092915050565b600080fd5b600067ffffffffffffffff821115612762576127616125ff565b5b61276b8261258e565b9050602081019050919050565b82818337600083830152505050565b600061279a61279584612747565b61265f565b9050828152602081018484840111156127b6576127b5612742565b5b6127c1848285612778565b509392505050565b600082601f8301126127de576127dd6125fa565b5b81356127ee848260208601612787565b91505092915050565b600080600080600060a0868803121561281357612812612358565b5b6000612821888289016123ab565b9550506020612832888289016123ab565b945050604086013567ffffffffffffffff8111156128535761285261235d565b5b61285f88828901612714565b935050606086013567ffffffffffffffff8111156128805761287f61235d565b5b61288c88828901612714565b925050608086013567ffffffffffffffff8111156128ad576128ac61235d565b5b6128b9888289016127c9565b9150509295509295909350565b6128cf81612382565b82525050565b60006020820190506128ea60008301846128c6565b92915050565b600067ffffffffffffffff82111561290b5761290a6125ff565b5b602082029050602081019050919050565b600061292f61292a846128f0565b61265f565b90508083825260208201905060208402830185811115612952576129516126a6565b5b835b8181101561297b578061296788826123ab565b845260208401935050602081019050612954565b5050509392505050565b600082601f83011261299a576129996125fa565b5b81356129aa84826020860161291c565b91505092915050565b600080604083850312156129ca576129c9612358565b5b600083013567ffffffffffffffff8111156129e8576129e761235d565b5b6129f485828601612985565b925050602083013567ffffffffffffffff811115612a1557612a1461235d565b5b612a2185828601612714565b9150509250929050565b600081519050919050565b600082825260208201905092915050565b6000819050602082019050919050565b612a60816123c0565b82525050565b6000612a728383612a57565b60208301905092915050565b6000602082019050919050565b6000612a9682612a2b565b612aa08185612a36565b9350612aab83612a47565b8060005b83811015612adc578151612ac38882612a66565b9750612ace83612a7e565b925050600181019050612aaf565b5085935050505092915050565b60006020820190508181036000830152612b038184612a8b565b905092915050565b612b14816124e5565b8114612b1f57600080fd5b50565b600081359050612b3181612b0b565b92915050565b60008060408385031215612b4e57612b4d612358565b5b6000612b5c858286016123ab565b9250506020612b6d85828601612b22565b9150509250929050565b60008060408385031215612b8e57612b8d612358565b5b6000612b9c858286016123ab565b9250506020612bad858286016123ab565b9150509250929050565b600080600080600060a08688031215612bd357612bd2612358565b5b6000612be1888289016123ab565b9550506020612bf2888289016123ab565b9450506040612c03888289016123e1565b9350506060612c14888289016123e1565b925050608086013567ffffffffffffffff811115612c3557612c3461235d565b5b612c41888289016127c9565b9150509295509295909350565b600060208284031215612c6457612c63612358565b5b6000612c72848285016123ab565b91505092915050565b7f455243313135353a2061646472657373207a65726f206973206e6f742061207660008201527f616c6964206f776e657200000000000000000000000000000000000000000000602082015250565b6000612cd7602a83612553565b9150612ce282612c7b565b604082019050919050565b60006020820190508181036000830152612d0681612cca565b9050919050565b7f4e487b7100000000000000000000000000000000000000000000000000000000600052602260045260246000fd5b60006002820490506001821680612d5457607f821691505b602082108103612d6757612d66612d0d565b5b50919050565b7f455243313135353a2063616c6c6572206973206e6f7420746f6b656e206f776e60008201527f6572206f7220617070726f766564000000000000000000000000000000000000602082015250565b6000612dc9602e83612553565b9150612dd482612d6d565b604082019050919050565b60006020820190508181036000830152612df881612dbc565b9050919050565b7f4e487b7100000000000000000000000000000000000000000000000000000000600052601160045260246000fd5b6000612e39826123c0565b9150612e44836123c0565b9250828202612e52816123c0565b91508282048414831517612e6957612e68612dff565b5b5092915050565b7f4e6f7420656e6f75676820455448000000000000000000000000000000000000600082015250565b6000612ea6600e83612553565b9150612eb182612e70565b602082019050919050565b60006020820190508181036000830152612ed581612e99565b9050919050565b7f5469636b65742073616c652068617320656e6465640000000000000000000000600082015250565b6000612f12601583612553565b9150612f1d82612edc565b602082019050919050565b60006020820190508181036000830152612f4181612f05565b9050919050565b7f4e487b7100000000000000000000000000000000000000000000000000000000600052603260045260246000fd5b6000612f82826123c0565b91507fffffffffffffffffffffffffffffffffffffffffffffffffffffffffffffffff8203612fb457612fb3612dff565b5b600182019050919050565b7f5469636b65742073616c65206973207374696c6c206f6e000000000000000000600082015250565b6000612ff5601783612553565b915061300082612fbf565b602082019050919050565b6000602082019050818103600083015261302481612fe8565b9050919050565b7f54686572652773206e6f742045544820746f2077697468647261770000000000600082015250565b6000613061601b83612553565b915061306c8261302b565b602082019050919050565b6000602082019050818103600083015261309081613054565b9050919050565b7f43686f6f73652061206c75636b792077696e6e65722031737400000000000000600082015250565b60006130cd601983612553565b91506130d882613097565b602082019050919050565b600060208201905081810360008301526130fc816130c0565b9050919050565b7f455243313135353a206163636f756e747320616e6420696473206c656e67746860008201527f206d69736d617463680000000000000000000000000000000000000000000000602082015250565b600061315f602983612553565b915061316a82613103565b604082019050919050565b6000602082019050818103600083015261318e81613152565b9050919050565b7f4e6f206f6e652068617320626f75676874207469636b65747300000000000000600082015250565b60006131cb601983612553565b91506131d682613195565b602082019050919050565b600060208201905081810360008301526131fa816131be565b9050919050565b7f4c75636b792077696e6e657220616c72656164792063686f73656e0000000000600082015250565b6000613237601b83612553565b915061324282613201565b602082019050919050565b600060208201905081810360008301526132668161322a565b9050919050565b6000819050919050565b613288613283826123c0565b61326d565b82525050565b600061329a8285613277565b6020820191506132aa8284613277565b6020820191508190509392505050565b7f4e487b7100000000000000000000000000000000000000000000000000000000600052601260045260246000fd5b60006132f4826123c0565b91506132ff836123c0565b92508261330f5761330e6132ba565b5b828206905092915050565b7f4f776e61626c653a206e6577206f776e657220697320746865207a65726f206160008201527f6464726573730000000000000000000000000000000000000000000000000000602082015250565b6000613376602683612553565b91506133818261331a565b604082019050919050565b600060208201905081810360008301526133a581613369565b9050919050565b7f455243313135353a2069647320616e6420616d6f756e7473206c656e6774682060008201527f6d69736d61746368000000000000000000000000000000000000000000000000602082015250565b6000613408602883612553565b9150613413826133ac565b604082019050919050565b60006020820190508181036000830152613437816133fb565b9050919050565b7f455243313135353a207472616e7366657220746f20746865207a65726f20616460008201527f6472657373000000000000000000000000000000000000000000000000000000602082015250565b600061349a602583612553565b91506134a58261343e565b604082019050919050565b600060208201905081810360008301526134c98161348d565b9050919050565b7f455243313135353a20696e73756666696369656e742062616c616e636520666f60008201527f72207472616e7366657200000000000000000000000000000000000000000000602082015250565b600061352c602a83612553565b9150613537826134d0565b604082019050919050565b6000602082019050818103600083015261355b8161351f565b9050919050565b600061356d826123c0565b9150613578836123c0565b92508282019050808211156135905761358f612dff565b5b92915050565b600060408201905081810360008301526135b08185612a8b565b905081810360208301526135c48184612a8b565b90509392505050565b7f4f776e61626c653a2063616c6c6572206973206e6f7420746865206f776e6572600082015250565b6000613603602083612553565b915061360e826135cd565b602082019050919050565b60006020820190508181036000830152613632816135f6565b9050919050565b7f455243313135353a2073657474696e6720617070726f76616c2073746174757360008201527f20666f722073656c660000000000000000000000000000000000000000000000602082015250565b6000613695602983612553565b91506136a082613639565b604082019050919050565b600060208201905081810360008301526136c481613688565b9050919050565b60006040820190506136e06000830185612436565b6136ed6020830184612436565b9392505050565b600081519050919050565b600082825260208201905092915050565b600061371b826136f4565b61372581856136ff565b9350613735818560208601612564565b61373e8161258e565b840191505092915050565b600060a08201905061375e60008301886128c6565b61376b60208301876128c6565b818103604083015261377d8186612a8b565b905081810360608301526137918185612a8b565b905081810360808301526137a58184613710565b90509695505050505050565b6000815190506137c08161248c565b92915050565b6000602082840312156137dc576137db612358565b5b60006137ea848285016137b1565b91505092915050565b60008160e01c9050919050565b600060033d111561381f5760046000803e61381c6000516137f3565b90505b90565b600060443d106138af5761383461234e565b60043d036004823e80513d602482011167ffffffffffffffff8211171561385c5750506138af565b808201805167ffffffffffffffff81111561387a57505050506138af565b80602083010160043d0385018111156138975750505050506138af565b6138a68260200185018661262e565b82955050505050505b90565b7f455243313135353a207472616e7366657220746f206e6f6e2d4552433131353560008201527f526563656976657220696d706c656d656e746572000000000000000000000000602082015250565b600061390e603483612553565b9150613919826138b2565b604082019050919050565b6000602082019050818103600083015261393d81613901565b9050919050565b7f455243313135353a204552433131353552656365697665722072656a6563746560008201527f6420746f6b656e73000000000000000000000000000000000000000000000000602082015250565b60006139a0602883612553565b91506139ab82613944565b604082019050919050565b600060208201905081810360008301526139cf81613993565b9050919050565b7f455243313135353a206d696e7420746f20746865207a65726f2061646472657360008201527f7300000000000000000000000000000000000000000000000000000000000000602082015250565b6000613a32602183612553565b9150613a3d826139d6565b604082019050919050565b60006020820190508181036000830152613a6181613a25565b9050919050565b600060a082019050613a7d60008301886128c6565b613a8a60208301876128c6565b613a976040830186612436565b613aa46060830185612436565b8181036080830152613ab68184613710565b9050969550505050505056fea26469706673582212203a398118ce98b0c5c5fe9e42b4d8a5d0a90569b04fe296bb12065e10d1041eec64736f6c63430008120033",
  "linkReferences": {},
  "deployedLinkReferences": {}
}