{
  "_format": "hh-sol-artifact-1",
  "contractName": "EventContract",
  "sourceName": "contracts/Event.sol",
  "abi": [
    {
      "inputs": [
        {
          "internalType": "string",
          "name": "_nameOfEvent",
          "type": "string"
        },
        {
          "internalType": "uint256",
          "name": "_endTicketSale",
          "type": "uint256"
        },
        {
          "internalType": "string",
          "name": "_aboutEvent",
          "type": "string"
        },
        {
          "internalType": "uint256",
          "name": "_priceForEvent",
          "type": "uint256"
        },
        {
          "internalType": "string",
          "name": "_uri",
          "type": "string"
        }
      ],
      "stateMutability": "nonpayable",
      "type": "constructor"
    },
    {
      "anonymous": false,
      "inputs": [
        {
          "indexed": true,
          "internalType": "address",
          "name": "account",
          "type": "address"
        },
        {
          "indexed": true,
          "internalType": "address",
          "name": "operator",
          "type": "address"
        },
        {
          "indexed": false,
          "internalType": "bool",
          "name": "approved",
          "type": "bool"
        }
      ],
      "name": "ApprovalForAll",
      "type": "event"
    },
    {
      "anonymous": false,
      "inputs": [
        {
          "indexed": true,
          "internalType": "address",
          "name": "previousOwner",
          "type": "address"
        },
        {
          "indexed": true,
          "internalType": "address",
          "name": "newOwner",
          "type": "address"
        }
      ],
      "name": "OwnershipTransferred",
      "type": "event"
    },
    {
      "anonymous": false,
      "inputs": [
        {
          "indexed": true,
          "internalType": "address",
          "name": "operator",
          "type": "address"
        },
        {
          "indexed": true,
          "internalType": "address",
          "name": "from",
          "type": "address"
        },
        {
          "indexed": true,
          "internalType": "address",
          "name": "to",
          "type": "address"
        },
        {
          "indexed": false,
          "internalType": "uint256[]",
          "name": "ids",
          "type": "uint256[]"
        },
        {
          "indexed": false,
          "internalType": "uint256[]",
          "name": "values",
          "type": "uint256[]"
        }
      ],
      "name": "TransferBatch",
      "type": "event"
    },
    {
      "anonymous": false,
      "inputs": [
        {
          "indexed": true,
          "internalType": "address",
          "name": "operator",
          "type": "address"
        },
        {
          "indexed": true,
          "internalType": "address",
          "name": "from",
          "type": "address"
        },
        {
          "indexed": true,
          "internalType": "address",
          "name": "to",
          "type": "address"
        },
        {
          "indexed": false,
          "internalType": "uint256",
          "name": "id",
          "type": "uint256"
        },
        {
          "indexed": false,
          "internalType": "uint256",
          "name": "value",
          "type": "uint256"
        }
      ],
      "name": "TransferSingle",
      "type": "event"
    },
    {
      "anonymous": false,
      "inputs": [
        {
          "indexed": false,
          "internalType": "string",
          "name": "value",
          "type": "string"
        },
        {
          "indexed": true,
          "internalType": "uint256",
          "name": "id",
          "type": "uint256"
        }
      ],
      "name": "URI",
      "type": "event"
    },
    {
      "inputs": [],
      "name": "aboutEvent",
      "outputs": [
        {
          "internalType": "string",
          "name": "",
          "type": "string"
        }
      ],
      "stateMutability": "view",
      "type": "function"
    },
    {
      "inputs": [
        {
          "internalType": "uint256",
          "name": "",
          "type": "uint256"
        }
      ],
      "name": "addressList",
      "outputs": [
        {
          "internalType": "address",
          "name": "",
          "type": "address"
        }
      ],
      "stateMutability": "view",
      "type": "function"
    },
    {
      "inputs": [
        {
          "internalType": "address",
          "name": "account",
          "type": "address"
        },
        {
          "internalType": "uint256",
          "name": "id",
          "type": "uint256"
        }
      ],
      "name": "balanceOf",
      "outputs": [
        {
          "internalType": "uint256",
          "name": "",
          "type": "uint256"
        }
      ],
      "stateMutability": "view",
      "type": "function"
    },
    {
      "inputs": [
        {
          "internalType": "address[]",
          "name": "accounts",
          "type": "address[]"
        },
        {
          "internalType": "uint256[]",
          "name": "ids",
          "type": "uint256[]"
        }
      ],
      "name": "balanceOfBatch",
      "outputs": [
        {
          "internalType": "uint256[]",
          "name": "",
          "type": "uint256[]"
        }
      ],
      "stateMutability": "view",
      "type": "function"
    },
    {
      "inputs": [
        {
          "internalType": "uint256",
          "name": "_amount",
          "type": "uint256"
        }
      ],
      "name": "buyTickets",
      "outputs": [],
      "stateMutability": "payable",
      "type": "function"
    },
    {
      "inputs": [],
      "name": "chooseLuckyWinner",
      "outputs": [
        {
          "internalType": "address",
          "name": "",
          "type": "address"
        }
      ],
      "stateMutability": "nonpayable",
      "type": "function"
    },
    {
      "inputs": [],
      "name": "endTicketSale",
      "outputs": [
        {
          "internalType": "uint256",
          "name": "",
          "type": "uint256"
        }
      ],
      "stateMutability": "view",
      "type": "function"
    },
    {
      "inputs": [],
      "name": "getCurrentTimestamp",
      "outputs": [
        {
          "internalType": "uint256",
          "name": "",
          "type": "uint256"
        }
      ],
      "stateMutability": "view",
      "type": "function"
    },
    {
      "inputs": [],
      "name": "getEndTimestamp",
      "outputs": [
        {
          "internalType": "uint256",
          "name": "",
          "type": "uint256"
        }
      ],
      "stateMutability": "view",
      "type": "function"
    },
    {
      "inputs": [],
      "name": "getLuckyWinnerAddress",
      "outputs": [
        {
          "internalType": "address",
          "name": "",
          "type": "address"
        }
      ],
      "stateMutability": "view",
      "type": "function"
    },
    {
      "inputs": [],
      "name": "getTicketBalance",
      "outputs": [
        {
          "internalType": "uint256",
          "name": "",
          "type": "uint256"
        }
      ],
      "stateMutability": "view",
      "type": "function"
    },
    {
      "inputs": [],
      "name": "getUri",
      "outputs": [
        {
          "internalType": "string",
          "name": "",
          "type": "string"
        }
      ],
      "stateMutability": "view",
      "type": "function"
    },
    {
      "inputs": [
        {
          "internalType": "address",
          "name": "account",
          "type": "address"
        },
        {
          "internalType": "address",
          "name": "operator",
          "type": "address"
        }
      ],
      "name": "isApprovedForAll",
      "outputs": [
        {
          "internalType": "bool",
          "name": "",
          "type": "bool"
        }
      ],
      "stateMutability": "view",
      "type": "function"
    },
    {
      "inputs": [],
      "name": "luckyWinner",
      "outputs": [
        {
          "internalType": "address",
          "name": "",
          "type": "address"
        }
      ],
      "stateMutability": "view",
      "type": "function"
    },
    {
      "inputs": [],
      "name": "luckyWinnerChosen",
      "outputs": [
        {
          "internalType": "bool",
          "name": "",
          "type": "bool"
        }
      ],
      "stateMutability": "view",
      "type": "function"
    },
    {
      "inputs": [],
      "name": "nameOfEvent",
      "outputs": [
        {
          "internalType": "string",
          "name": "",
          "type": "string"
        }
      ],
      "stateMutability": "view",
      "type": "function"
    },
    {
      "inputs": [],
      "name": "owner",
      "outputs": [
        {
          "internalType": "address",
          "name": "",
          "type": "address"
        }
      ],
      "stateMutability": "view",
      "type": "function"
    },
    {
      "inputs": [],
      "name": "priceForEvent",
      "outputs": [
        {
          "internalType": "uint256",
          "name": "",
          "type": "uint256"
        }
      ],
      "stateMutability": "view",
      "type": "function"
    },
    {
      "inputs": [],
      "name": "renounceOwnership",
      "outputs": [],
      "stateMutability": "nonpayable",
      "type": "function"
    },
    {
      "inputs": [
        {
          "internalType": "address",
          "name": "from",
          "type": "address"
        },
        {
          "internalType": "address",
          "name": "to",
          "type": "address"
        },
        {
          "internalType": "uint256[]",
          "name": "ids",
          "type": "uint256[]"
        },
        {
          "internalType": "uint256[]",
          "name": "amounts",
          "type": "uint256[]"
        },
        {
          "internalType": "bytes",
          "name": "data",
          "type": "bytes"
        }
      ],
      "name": "safeBatchTransferFrom",
      "outputs": [],
      "stateMutability": "nonpayable",
      "type": "function"
    },
    {
      "inputs": [
        {
          "internalType": "address",
          "name": "from",
          "type": "address"
        },
        {
          "internalType": "address",
          "name": "to",
          "type": "address"
        },
        {
          "internalType": "uint256",
          "name": "id",
          "type": "uint256"
        },
        {
          "internalType": "uint256",
          "name": "amount",
          "type": "uint256"
        },
        {
          "internalType": "bytes",
          "name": "data",
          "type": "bytes"
        }
      ],
      "name": "safeTransferFrom",
      "outputs": [],
      "stateMutability": "nonpayable",
      "type": "function"
    },
    {
      "inputs": [
        {
          "internalType": "address",
          "name": "operator",
          "type": "address"
        },
        {
          "internalType": "bool",
          "name": "approved",
          "type": "bool"
        }
      ],
      "name": "setApprovalForAll",
      "outputs": [],
      "stateMutability": "nonpayable",
      "type": "function"
    },
    {
      "inputs": [],
      "name": "startTicketSale",
      "outputs": [
        {
          "internalType": "uint256",
          "name": "",
          "type": "uint256"
        }
      ],
      "stateMutability": "view",
      "type": "function"
    },
    {
      "inputs": [
        {
          "internalType": "bytes4",
          "name": "interfaceId",
          "type": "bytes4"
        }
      ],
      "name": "supportsInterface",
      "outputs": [
        {
          "internalType": "bool",
          "name": "",
          "type": "bool"
        }
      ],
      "stateMutability": "view",
      "type": "function"
    },
    {
      "inputs": [
        {
          "internalType": "address",
          "name": "newOwner",
          "type": "address"
        }
      ],
      "name": "transferOwnership",
      "outputs": [],
      "stateMutability": "nonpayable",
      "type": "function"
    },
    {
      "inputs": [
        {
          "internalType": "uint256",
          "name": "",
          "type": "uint256"
        }
      ],
      "name": "uri",
      "outputs": [
        {
          "internalType": "string",
          "name": "",
          "type": "string"
        }
      ],
      "stateMutability": "view",
      "type": "function"
    },
    {
      "inputs": [],
      "name": "uri",
      "outputs": [
        {
          "internalType": "string",
          "name": "",
          "type": "string"
        }
      ],
      "stateMutability": "view",
      "type": "function"
    },
    {
      "inputs": [],
      "name": "withdraw",
      "outputs": [],
      "stateMutability": "nonpayable",
      "type": "function"
    }
  ],
  "bytecode": "0x6080604052600960405160200162000018919062000312565b604051602081830303815290604052600a908162000037919062000541565b506000600c60006101000a81548160ff0219169083151502179055503480156200006057600080fd5b506040516200467e3803806200467e8339818101604052810190620000869190620007bd565b8062000098816200011c60201b60201c565b50620000b9620000ad6200013160201b60201c565b6200013960201b60201c565b8460049081620000ca9190620008fd565b50426005819055508342620000e0919062000a13565b6006819055508260079081620000f79190620008fd565b50816008819055508060099081620001109190620008fd565b50505050505062000a4e565b80600290816200012d9190620008fd565b5050565b600033905090565b6000600360009054906101000a900473ffffffffffffffffffffffffffffffffffffffff16905081600360006101000a81548173ffffffffffffffffffffffffffffffffffffffff021916908373ffffffffffffffffffffffffffffffffffffffff1602179055508173ffffffffffffffffffffffffffffffffffffffff168173ffffffffffffffffffffffffffffffffffffffff167f8be0079c531659141344cd1fd0a4f28419497f9722a3daafe3b4186f6b6457e060405160405180910390a35050565b7f4e487b7100000000000000000000000000000000000000000000000000000000600052602260045260246000fd5b600060028204905060018216806200024757607f821691505b6020821081036200025d576200025c620001ff565b5b50919050565b600081905092915050565b60008190508160005260206000209050919050565b6000815462000292816200022e565b6200029e818662000263565b94506001821660008114620002bc5760018114620002d25762000309565b60ff198316865281151582028601935062000309565b620002dd856200026e565b60005b838110156200030157815481890152600182019150602081019050620002e0565b838801955050505b50505092915050565b600062000320828462000283565b915081905092915050565b600081519050919050565b7f4e487b7100000000000000000000000000000000000000000000000000000000600052604160045260246000fd5b60008190508160005260206000209050919050565b60006020601f8301049050919050565b600082821b905092915050565b600060088302620003c97fffffffffffffffffffffffffffffffffffffffffffffffffffffffffffffffff826200038a565b620003d586836200038a565b95508019841693508086168417925050509392505050565b6000819050919050565b6000819050919050565b6000620004226200041c6200041684620003ed565b620003f7565b620003ed565b9050919050565b6000819050919050565b6200043e8362000401565b620004566200044d8262000429565b84845462000397565b825550505050565b600090565b6200046d6200045e565b6200047a81848462000433565b505050565b5b81811015620004a2576200049660008262000463565b60018101905062000480565b5050565b601f821115620004f157620004bb8162000365565b620004c6846200037a565b81016020851015620004d6578190505b620004ee620004e5856200037a565b8301826200047f565b50505b505050565b600082821c905092915050565b60006200051660001984600802620004f6565b1980831691505092915050565b600062000531838362000503565b9150826002028217905092915050565b6200054c826200032b565b67ffffffffffffffff81111562000568576200056762000336565b5b6200057482546200022e565b62000581828285620004a6565b600060209050601f831160018114620005b95760008415620005a4578287015190505b620005b0858262000523565b86555062000620565b601f198416620005c98662000365565b60005b82811015620005f357848901518255600182019150602085019450602081019050620005cc565b868310156200061357848901516200060f601f89168262000503565b8355505b6001600288020188555050505b505050505050565b6000604051905090565b600080fd5b600080fd5b600080fd5b600080fd5b6000601f19601f8301169050919050565b620006628262000646565b810181811067ffffffffffffffff8211171562000684576200068362000336565b5b80604052505050565b60006200069962000628565b9050620006a7828262000657565b919050565b600067ffffffffffffffff821115620006ca57620006c962000336565b5b620006d58262000646565b9050602081019050919050565b60005b8381101562000702578082015181840152602081019050620006e5565b60008484015250505050565b6000620007256200071f84620006ac565b6200068d565b90508281526020810184848401111562000744576200074362000641565b5b62000751848285620006e2565b509392505050565b600082601f8301126200077157620007706200063c565b5b8151620007838482602086016200070e565b91505092915050565b6200079781620003ed565b8114620007a357600080fd5b50565b600081519050620007b7816200078c565b92915050565b600080600080600060a08688031215620007dc57620007db62000632565b5b600086015167ffffffffffffffff811115620007fd57620007fc62000637565b5b6200080b8882890162000759565b95505060206200081e88828901620007a6565b945050604086015167ffffffffffffffff81111562000842576200084162000637565b5b620008508882890162000759565b93505060606200086388828901620007a6565b925050608086015167ffffffffffffffff81111562000887576200088662000637565b5b620008958882890162000759565b9150509295509295909350565b600081519050919050565b601f821115620008f857620008c2816200026e565b620008cd846200037a565b81016020851015620008dd578190505b620008f5620008ec856200037a565b8301826200047f565b50505b505050565b6200090882620008a2565b67ffffffffffffffff81111562000924576200092362000336565b5b6200093082546200022e565b6200093d828285620008ad565b600060209050601f83116001811462000975576000841562000960578287015190505b6200096c858262000523565b865550620009dc565b601f19841662000985866200026e565b60005b82811015620009af5784890151825560018201915060208501945060208101905062000988565b86831015620009cf5784890151620009cb601f89168262000503565b8355505b6001600288020188555050505b505050505050565b7f4e487b7100000000000000000000000000000000000000000000000000000000600052601160045260246000fd5b600062000a2082620003ed565b915062000a2d83620003ed565b925082820190508082111562000a485762000a47620009e4565b5b92915050565b613c208062000a5e6000396000f3fe6080604052600436106101b65760003560e01c80636c9230db116100ec578063b810fb431161008a578063eac989f811610064578063eac989f8146105f4578063f242432a1461061f578063f2fde38b14610648578063fcf488a914610671576101b6565b8063b810fb431461054f578063bfbfc1c81461058c578063e985e9c5146105b7576101b6565b80637df4ae49116100c65780637df4ae49146104a557806380d3cd4e146104d05780638da5cb5b146104fb578063a22cb46514610526576101b6565b80636c9230db14610438578063715018a61461046357806374e94deb1461047a576101b6565b80634a34511e116101595780635997e97b116101335780635997e97b1461038c57806361511142146103b757806369c1a901146103e25780636bd115911461040d576101b6565b80634a34511e146102f95780634e1273f4146103245780634e16fc8b14610361576101b6565b80632eb2c2d6116101955780632eb2c2d6146102725780632f3666371461029b5780633ccfd60b146102b757806348c724ed146102ce576101b6565b8062fdd58e146101bb57806301ffc9a7146101f85780630e89341c14610235575b600080fd5b3480156101c757600080fd5b506101e260048036038101906101dd919061251e565b61069c565b6040516101ef919061256d565b60405180910390f35b34801561020457600080fd5b5061021f600480360381019061021a91906125e0565b610764565b60405161022c9190612628565b60405180910390f35b34801561024157600080fd5b5061025c60048036038101906102579190612643565b610846565b6040516102699190612700565b60405180910390f35b34801561027e57600080fd5b506102996004803603810190610294919061291f565b6108da565b005b6102b560048036038101906102b09190612643565b61097b565b005b3480156102c357600080fd5b506102cc610bb2565b005b3480156102da57600080fd5b506102e3610ce5565b6040516102f0919061256d565b60405180910390f35b34801561030557600080fd5b5061030e610ceb565b60405161031b91906129fd565b60405180910390f35b34801561033057600080fd5b5061034b60048036038101906103469190612adb565b610d15565b6040516103589190612c11565b60405180910390f35b34801561036d57600080fd5b50610376610e2e565b6040516103839190612700565b60405180910390f35b34801561039857600080fd5b506103a1610ec0565b6040516103ae919061256d565b60405180910390f35b3480156103c357600080fd5b506103cc610ed2565b6040516103d9919061256d565b60405180910390f35b3480156103ee57600080fd5b506103f7610ed8565b6040516104049190612700565b60405180910390f35b34801561041957600080fd5b50610422610f66565b60405161042f91906129fd565b60405180910390f35b34801561044457600080fd5b5061044d6111c3565b60405161045a919061256d565b60405180910390f35b34801561046f57600080fd5b506104786111cb565b005b34801561048657600080fd5b5061048f6111df565b60405161049c919061256d565b60405180910390f35b3480156104b157600080fd5b506104ba6111e9565b6040516104c7919061256d565b60405180910390f35b3480156104dc57600080fd5b506104e56111ef565b6040516104f29190612700565b60405180910390f35b34801561050757600080fd5b5061051061127d565b60405161051d91906129fd565b60405180910390f35b34801561053257600080fd5b5061054d60048036038101906105489190612c5f565b6112a7565b005b34801561055b57600080fd5b5061057660048036038101906105719190612643565b6112bd565b60405161058391906129fd565b60405180910390f35b34801561059857600080fd5b506105a16112fc565b6040516105ae9190612628565b60405180910390f35b3480156105c357600080fd5b506105de60048036038101906105d99190612c9f565b61130f565b6040516105eb9190612628565b60405180910390f35b34801561060057600080fd5b506106096113a3565b6040516106169190612700565b60405180910390f35b34801561062b57600080fd5b5061064660048036038101906106419190612cdf565b611431565b005b34801561065457600080fd5b5061066f600480360381019061066a9190612d76565b6114d2565b005b34801561067d57600080fd5b50610686611555565b60405161069391906129fd565b60405180910390f35b60008073ffffffffffffffffffffffffffffffffffffffff168373ffffffffffffffffffffffffffffffffffffffff160361070c576040517f08c379a000000000000000000000000000000000000000000000000000000000815260040161070390612e15565b60405180910390fd5b60008083815260200190815260200160002060008473ffffffffffffffffffffffffffffffffffffffff1673ffffffffffffffffffffffffffffffffffffffff16815260200190815260200160002054905092915050565b60007fd9b67a26000000000000000000000000000000000000000000000000000000007bffffffffffffffffffffffffffffffffffffffffffffffffffffffff1916827bffffffffffffffffffffffffffffffffffffffffffffffffffffffff1916148061082f57507f0e89341c000000000000000000000000000000000000000000000000000000007bffffffffffffffffffffffffffffffffffffffffffffffffffffffff1916827bffffffffffffffffffffffffffffffffffffffffffffffffffffffff1916145b8061083f575061083e8261157b565b5b9050919050565b60606002805461085590612e64565b80601f016020809104026020016040519081016040528092919081815260200182805461088190612e64565b80156108ce5780601f106108a3576101008083540402835291602001916108ce565b820191906000526020600020905b8154815290600101906020018083116108b157829003601f168201915b50505050509050919050565b6108e26115e5565b73ffffffffffffffffffffffffffffffffffffffff168573ffffffffffffffffffffffffffffffffffffffff1614806109285750610927856109226115e5565b61130f565b5b610967576040517f08c379a000000000000000000000000000000000000000000000000000000000815260040161095e90612f07565b60405180910390fd5b61097485858585856115ed565b5050505050565b806008546109899190612f56565b3410156109cb576040517f08c379a00000000000000000000000000000000000000000000000000000000081526004016109c290612fe4565b60405180910390fd5b6006544210610a0f576040517f08c379a0000000000000000000000000000000000000000000000000000000008152600401610a0690613050565b60405180910390fd5b610aa633600183600a8054610a2390612e64565b80601f0160208091040260200160405190810160405280929190818152602001828054610a4f90612e64565b8015610a9c5780601f10610a7157610100808354040283529160200191610a9c565b820191906000526020600020905b815481529060010190602001808311610a7f57829003601f168201915b505050505061190e565b6000805b600b80549050811015610b44573373ffffffffffffffffffffffffffffffffffffffff16600b8281548110610ae257610ae1613070565b5b9060005260206000200160009054906101000a900473ffffffffffffffffffffffffffffffffffffffff1673ffffffffffffffffffffffffffffffffffffffff1603610b315760019150610b44565b8080610b3c9061309f565b915050610aaa565b5080610bae57600b339080600181540180825580915050600190039060005260206000200160009091909190916101000a81548173ffffffffffffffffffffffffffffffffffffffff021916908373ffffffffffffffffffffffffffffffffffffffff1602179055505b5050565b600654421015610bf7576040517f08c379a0000000000000000000000000000000000000000000000000000000008152600401610bee90613133565b60405180910390fd5b610bff611920565b600047905060008111610c47576040517f08c379a0000000000000000000000000000000000000000000000000000000008152600401610c3e9061319f565b60405180910390fd5b60011515600c60009054906101000a900460ff16151514610c9d576040517f08c379a0000000000000000000000000000000000000000000000000000000008152600401610c949061320b565b60405180910390fd5b610ca561127d565b73ffffffffffffffffffffffffffffffffffffffff166108fc479081150290604051600060405180830381858888f19350505050610ce257600080fd5b50565b60055481565b6000600c60019054906101000a900473ffffffffffffffffffffffffffffffffffffffff16905090565b60608151835114610d5b576040517f08c379a0000000000000000000000000000000000000000000000000000000008152600401610d529061329d565b60405180910390fd5b6000835167ffffffffffffffff811115610d7857610d77612727565b5b604051908082528060200260200182016040528015610da65781602001602082028036833780820191505090505b50905060005b8451811015610e2357610df3858281518110610dcb57610dca613070565b5b6020026020010151858381518110610de657610de5613070565b5b602002602001015161069c565b828281518110610e0657610e05613070565b5b60200260200101818152505080610e1c9061309f565b9050610dac565b508091505092915050565b606060098054610e3d90612e64565b80601f0160208091040260200160405190810160405280929190818152602001828054610e6990612e64565b8015610eb65780601f10610e8b57610100808354040283529160200191610eb6565b820191906000526020600020905b815481529060010190602001808311610e9957829003601f168201915b5050505050905090565b6000610ecd33600161069c565b905090565b60085481565b60048054610ee590612e64565b80601f0160208091040260200160405190810160405280929190818152602001828054610f1190612e64565b8015610f5e5780601f10610f3357610100808354040283529160200191610f5e565b820191906000526020600020905b815481529060010190602001808311610f4157829003601f168201915b505050505081565b6000600654421015610fad576040517f08c379a0000000000000000000000000000000000000000000000000000000008152600401610fa490613133565b60405180910390fd5b6000600b8054905011610ff5576040517f08c379a0000000000000000000000000000000000000000000000000000000008152600401610fec90613309565b60405180910390fd5b600c60009054906101000a900460ff1615611045576040517f08c379a000000000000000000000000000000000000000000000000000000000815260040161103c90613375565b60405180910390fd5b6000600b8054905042446040516020016110609291906133b6565b6040516020818303038152906040528051906020012060001c6110839190613411565b90506000600b828154811061109b5761109a613070565b5b9060005260206000200160009054906101000a900473ffffffffffffffffffffffffffffffffffffffff16905080600c60016101000a81548173ffffffffffffffffffffffffffffffffffffffff021916908373ffffffffffffffffffffffffffffffffffffffff1602179055506111a081600180600a805461111d90612e64565b80601f016020809104026020016040519081016040528092919081815260200182805461114990612e64565b80156111965780601f1061116b57610100808354040283529160200191611196565b820191906000526020600020905b81548152906001019060200180831161117957829003601f168201915b505050505061190e565b6001600c60006101000a81548160ff021916908315150217905550809250505090565b600042905090565b6111d3611920565b6111dd600061199e565b565b6000600654905090565b60065481565b600780546111fc90612e64565b80601f016020809104026020016040519081016040528092919081815260200182805461122890612e64565b80156112755780601f1061124a57610100808354040283529160200191611275565b820191906000526020600020905b81548152906001019060200180831161125857829003601f168201915b505050505081565b6000600360009054906101000a900473ffffffffffffffffffffffffffffffffffffffff16905090565b6112b96112b26115e5565b8383611a64565b5050565b600b81815481106112cd57600080fd5b906000526020600020016000915054906101000a900473ffffffffffffffffffffffffffffffffffffffff1681565b600c60009054906101000a900460ff1681565b6000600160008473ffffffffffffffffffffffffffffffffffffffff1673ffffffffffffffffffffffffffffffffffffffff16815260200190815260200160002060008373ffffffffffffffffffffffffffffffffffffffff1673ffffffffffffffffffffffffffffffffffffffff16815260200190815260200160002060009054906101000a900460ff16905092915050565b600980546113b090612e64565b80601f01602080910402602001604051908101604052809291908181526020018280546113dc90612e64565b80156114295780601f106113fe57610100808354040283529160200191611429565b820191906000526020600020905b81548152906001019060200180831161140c57829003601f168201915b505050505081565b6114396115e5565b73ffffffffffffffffffffffffffffffffffffffff168573ffffffffffffffffffffffffffffffffffffffff16148061147f575061147e856114796115e5565b61130f565b5b6114be576040517f08c379a00000000000000000000000000000000000000000000000000000000081526004016114b590612f07565b60405180910390fd5b6114cb8585858585611bd0565b5050505050565b6114da611920565b600073ffffffffffffffffffffffffffffffffffffffff168173ffffffffffffffffffffffffffffffffffffffff1603611549576040517f08c379a0000000000000000000000000000000000000000000000000000000008152600401611540906134b4565b60405180910390fd5b6115528161199e565b50565b600c60019054906101000a900473ffffffffffffffffffffffffffffffffffffffff1681565b60007f01ffc9a7000000000000000000000000000000000000000000000000000000007bffffffffffffffffffffffffffffffffffffffffffffffffffffffff1916827bffffffffffffffffffffffffffffffffffffffffffffffffffffffff1916149050919050565b600033905090565b8151835114611631576040517f08c379a000000000000000000000000000000000000000000000000000000000815260040161162890613546565b60405180910390fd5b600073ffffffffffffffffffffffffffffffffffffffff168473ffffffffffffffffffffffffffffffffffffffff16036116a0576040517f08c379a0000000000000000000000000000000000000000000000000000000008152600401611697906135d8565b60405180910390fd5b60006116aa6115e5565b90506116ba818787878787611e6b565b60005b845181101561186b5760008582815181106116db576116da613070565b5b6020026020010151905060008583815181106116fa576116f9613070565b5b60200260200101519050600080600084815260200190815260200160002060008b73ffffffffffffffffffffffffffffffffffffffff1673ffffffffffffffffffffffffffffffffffffffff1681526020019081526020016000205490508181101561179b576040517f08c379a00000000000000000000000000000000000000000000000000000000081526004016117929061366a565b60405180910390fd5b81810360008085815260200190815260200160002060008c73ffffffffffffffffffffffffffffffffffffffff1673ffffffffffffffffffffffffffffffffffffffff168152602001908152602001600020819055508160008085815260200190815260200160002060008b73ffffffffffffffffffffffffffffffffffffffff1673ffffffffffffffffffffffffffffffffffffffff1681526020019081526020016000206000828254611850919061368a565b92505081905550505050806118649061309f565b90506116bd565b508473ffffffffffffffffffffffffffffffffffffffff168673ffffffffffffffffffffffffffffffffffffffff168273ffffffffffffffffffffffffffffffffffffffff167f4a39dc06d4c0dbc64b70af90fd698a233a518aa5d07e595d983b8c0526c8f7fb87876040516118e29291906136be565b60405180910390a46118f8818787878787611e73565b611906818787878787611e7b565b505050505050565b61191a84848484612052565b50505050565b6119286115e5565b73ffffffffffffffffffffffffffffffffffffffff1661194661127d565b73ffffffffffffffffffffffffffffffffffffffff161461199c576040517f08c379a000000000000000000000000000000000000000000000000000000000815260040161199390613741565b60405180910390fd5b565b6000600360009054906101000a900473ffffffffffffffffffffffffffffffffffffffff16905081600360006101000a81548173ffffffffffffffffffffffffffffffffffffffff021916908373ffffffffffffffffffffffffffffffffffffffff1602179055508173ffffffffffffffffffffffffffffffffffffffff168173ffffffffffffffffffffffffffffffffffffffff167f8be0079c531659141344cd1fd0a4f28419497f9722a3daafe3b4186f6b6457e060405160405180910390a35050565b8173ffffffffffffffffffffffffffffffffffffffff168373ffffffffffffffffffffffffffffffffffffffff1603611ad2576040517f08c379a0000000000000000000000000000000000000000000000000000000008152600401611ac9906137d3565b60405180910390fd5b80600160008573ffffffffffffffffffffffffffffffffffffffff1673ffffffffffffffffffffffffffffffffffffffff16815260200190815260200160002060008473ffffffffffffffffffffffffffffffffffffffff1673ffffffffffffffffffffffffffffffffffffffff16815260200190815260200160002060006101000a81548160ff0219169083151502179055508173ffffffffffffffffffffffffffffffffffffffff168373ffffffffffffffffffffffffffffffffffffffff167f17307eab39ab6107e8899845ad3d59bd9653f200f220920489ca2b5937696c3183604051611bc39190612628565b60405180910390a3505050565b600073ffffffffffffffffffffffffffffffffffffffff168473ffffffffffffffffffffffffffffffffffffffff1603611c3f576040517f08c379a0000000000000000000000000000000000000000000000000000000008152600401611c36906135d8565b60405180910390fd5b6000611c496115e5565b90506000611c5685612202565b90506000611c6385612202565b9050611c73838989858589611e6b565b600080600088815260200190815260200160002060008a73ffffffffffffffffffffffffffffffffffffffff1673ffffffffffffffffffffffffffffffffffffffff16815260200190815260200160002054905085811015611d0a576040517f08c379a0000000000000000000000000000000000000000000000000000000008152600401611d019061366a565b60405180910390fd5b85810360008089815260200190815260200160002060008b73ffffffffffffffffffffffffffffffffffffffff1673ffffffffffffffffffffffffffffffffffffffff168152602001908152602001600020819055508560008089815260200190815260200160002060008a73ffffffffffffffffffffffffffffffffffffffff1673ffffffffffffffffffffffffffffffffffffffff1681526020019081526020016000206000828254611dbf919061368a565b925050819055508773ffffffffffffffffffffffffffffffffffffffff168973ffffffffffffffffffffffffffffffffffffffff168573ffffffffffffffffffffffffffffffffffffffff167fc3d58168c5ae7397731d063d5bbf3d657854427343f4c083240f7aacaa2d0f628a8a604051611e3c9291906137f3565b60405180910390a4611e52848a8a86868a611e73565b611e60848a8a8a8a8a61227c565b505050505050505050565b505050505050565b505050505050565b611e9a8473ffffffffffffffffffffffffffffffffffffffff16612453565b1561204a578373ffffffffffffffffffffffffffffffffffffffff1663bc197c8187878686866040518663ffffffff1660e01b8152600401611ee0959493929190613871565b6020604051808303816000875af1925050508015611f1c57506040513d601f19601f82011682018060405250810190611f1991906138ee565b60015b611fc157611f28613928565b806308c379a003611f845750611f3c61394a565b80611f475750611f86565b806040517f08c379a0000000000000000000000000000000000000000000000000000000008152600401611f7b9190612700565b60405180910390fd5b505b6040517f08c379a0000000000000000000000000000000000000000000000000000000008152600401611fb890613a4c565b60405180910390fd5b63bc197c8160e01b7bffffffffffffffffffffffffffffffffffffffffffffffffffffffff1916817bffffffffffffffffffffffffffffffffffffffffffffffffffffffff191614612048576040517f08c379a000000000000000000000000000000000000000000000000000000000815260040161203f90613ade565b60405180910390fd5b505b505050505050565b600073ffffffffffffffffffffffffffffffffffffffff168473ffffffffffffffffffffffffffffffffffffffff16036120c1576040517f08c379a00000000000000000000000000000000000000000000000000000000081526004016120b890613b70565b60405180910390fd5b60006120cb6115e5565b905060006120d885612202565b905060006120e585612202565b90506120f683600089858589611e6b565b8460008088815260200190815260200160002060008973ffffffffffffffffffffffffffffffffffffffff1673ffffffffffffffffffffffffffffffffffffffff1681526020019081526020016000206000828254612155919061368a565b925050819055508673ffffffffffffffffffffffffffffffffffffffff16600073ffffffffffffffffffffffffffffffffffffffff168473ffffffffffffffffffffffffffffffffffffffff167fc3d58168c5ae7397731d063d5bbf3d657854427343f4c083240f7aacaa2d0f6289896040516121d39291906137f3565b60405180910390a46121ea83600089858589611e73565b6121f98360008989898961227c565b50505050505050565b60606000600167ffffffffffffffff81111561222157612220612727565b5b60405190808252806020026020018201604052801561224f5781602001602082028036833780820191505090505b509050828160008151811061226757612266613070565b5b60200260200101818152505080915050919050565b61229b8473ffffffffffffffffffffffffffffffffffffffff16612453565b1561244b578373ffffffffffffffffffffffffffffffffffffffff1663f23a6e6187878686866040518663ffffffff1660e01b81526004016122e1959493929190613b90565b6020604051808303816000875af192505050801561231d57506040513d601f19601f8201168201806040525081019061231a91906138ee565b60015b6123c257612329613928565b806308c379a003612385575061233d61394a565b806123485750612387565b806040517f08c379a000000000000000000000000000000000000000000000000000000000815260040161237c9190612700565b60405180910390fd5b505b6040517f08c379a00000000000000000000000000000000000000000000000000000000081526004016123b990613a4c565b60405180910390fd5b63f23a6e6160e01b7bffffffffffffffffffffffffffffffffffffffffffffffffffffffff1916817bffffffffffffffffffffffffffffffffffffffffffffffffffffffff191614612449576040517f08c379a000000000000000000000000000000000000000000000000000000000815260040161244090613ade565b60405180910390fd5b505b505050505050565b6000808273ffffffffffffffffffffffffffffffffffffffff163b119050919050565b6000604051905090565b600080fd5b600080fd5b600073ffffffffffffffffffffffffffffffffffffffff82169050919050565b60006124b58261248a565b9050919050565b6124c5816124aa565b81146124d057600080fd5b50565b6000813590506124e2816124bc565b92915050565b6000819050919050565b6124fb816124e8565b811461250657600080fd5b50565b600081359050612518816124f2565b92915050565b6000806040838503121561253557612534612480565b5b6000612543858286016124d3565b925050602061255485828601612509565b9150509250929050565b612567816124e8565b82525050565b6000602082019050612582600083018461255e565b92915050565b60007fffffffff0000000000000000000000000000000000000000000000000000000082169050919050565b6125bd81612588565b81146125c857600080fd5b50565b6000813590506125da816125b4565b92915050565b6000602082840312156125f6576125f5612480565b5b6000612604848285016125cb565b91505092915050565b60008115159050919050565b6126228161260d565b82525050565b600060208201905061263d6000830184612619565b92915050565b60006020828403121561265957612658612480565b5b600061266784828501612509565b91505092915050565b600081519050919050565b600082825260208201905092915050565b60005b838110156126aa57808201518184015260208101905061268f565b60008484015250505050565b6000601f19601f8301169050919050565b60006126d282612670565b6126dc818561267b565b93506126ec81856020860161268c565b6126f5816126b6565b840191505092915050565b6000602082019050818103600083015261271a81846126c7565b905092915050565b600080fd5b7f4e487b7100000000000000000000000000000000000000000000000000000000600052604160045260246000fd5b61275f826126b6565b810181811067ffffffffffffffff8211171561277e5761277d612727565b5b80604052505050565b6000612791612476565b905061279d8282612756565b919050565b600067ffffffffffffffff8211156127bd576127bc612727565b5b602082029050602081019050919050565b600080fd5b60006127e66127e1846127a2565b612787565b90508083825260208201905060208402830185811115612809576128086127ce565b5b835b81811015612832578061281e8882612509565b84526020840193505060208101905061280b565b5050509392505050565b600082601f83011261285157612850612722565b5b81356128618482602086016127d3565b91505092915050565b600080fd5b600067ffffffffffffffff82111561288a57612889612727565b5b612893826126b6565b9050602081019050919050565b82818337600083830152505050565b60006128c26128bd8461286f565b612787565b9050828152602081018484840111156128de576128dd61286a565b5b6128e98482856128a0565b509392505050565b600082601f83011261290657612905612722565b5b81356129168482602086016128af565b91505092915050565b600080600080600060a0868803121561293b5761293a612480565b5b6000612949888289016124d3565b955050602061295a888289016124d3565b945050604086013567ffffffffffffffff81111561297b5761297a612485565b5b6129878882890161283c565b935050606086013567ffffffffffffffff8111156129a8576129a7612485565b5b6129b48882890161283c565b925050608086013567ffffffffffffffff8111156129d5576129d4612485565b5b6129e1888289016128f1565b9150509295509295909350565b6129f7816124aa565b82525050565b6000602082019050612a1260008301846129ee565b92915050565b600067ffffffffffffffff821115612a3357612a32612727565b5b602082029050602081019050919050565b6000612a57612a5284612a18565b612787565b90508083825260208201905060208402830185811115612a7a57612a796127ce565b5b835b81811015612aa35780612a8f88826124d3565b845260208401935050602081019050612a7c565b5050509392505050565b600082601f830112612ac257612ac1612722565b5b8135612ad2848260208601612a44565b91505092915050565b60008060408385031215612af257612af1612480565b5b600083013567ffffffffffffffff811115612b1057612b0f612485565b5b612b1c85828601612aad565b925050602083013567ffffffffffffffff811115612b3d57612b3c612485565b5b612b498582860161283c565b9150509250929050565b600081519050919050565b600082825260208201905092915050565b6000819050602082019050919050565b612b88816124e8565b82525050565b6000612b9a8383612b7f565b60208301905092915050565b6000602082019050919050565b6000612bbe82612b53565b612bc88185612b5e565b9350612bd383612b6f565b8060005b83811015612c04578151612beb8882612b8e565b9750612bf683612ba6565b925050600181019050612bd7565b5085935050505092915050565b60006020820190508181036000830152612c2b8184612bb3565b905092915050565b612c3c8161260d565b8114612c4757600080fd5b50565b600081359050612c5981612c33565b92915050565b60008060408385031215612c7657612c75612480565b5b6000612c84858286016124d3565b9250506020612c9585828601612c4a565b9150509250929050565b60008060408385031215612cb657612cb5612480565b5b6000612cc4858286016124d3565b9250506020612cd5858286016124d3565b9150509250929050565b600080600080600060a08688031215612cfb57612cfa612480565b5b6000612d09888289016124d3565b9550506020612d1a888289016124d3565b9450506040612d2b88828901612509565b9350506060612d3c88828901612509565b925050608086013567ffffffffffffffff811115612d5d57612d5c612485565b5b612d69888289016128f1565b9150509295509295909350565b600060208284031215612d8c57612d8b612480565b5b6000612d9a848285016124d3565b91505092915050565b7f455243313135353a2061646472657373207a65726f206973206e6f742061207660008201527f616c6964206f776e657200000000000000000000000000000000000000000000602082015250565b6000612dff602a8361267b565b9150612e0a82612da3565b604082019050919050565b60006020820190508181036000830152612e2e81612df2565b9050919050565b7f4e487b7100000000000000000000000000000000000000000000000000000000600052602260045260246000fd5b60006002820490506001821680612e7c57607f821691505b602082108103612e8f57612e8e612e35565b5b50919050565b7f455243313135353a2063616c6c6572206973206e6f7420746f6b656e206f776e60008201527f6572206f7220617070726f766564000000000000000000000000000000000000602082015250565b6000612ef1602e8361267b565b9150612efc82612e95565b604082019050919050565b60006020820190508181036000830152612f2081612ee4565b9050919050565b7f4e487b7100000000000000000000000000000000000000000000000000000000600052601160045260246000fd5b6000612f61826124e8565b9150612f6c836124e8565b9250828202612f7a816124e8565b91508282048414831517612f9157612f90612f27565b5b5092915050565b7f4e6f7420656e6f75676820455448000000000000000000000000000000000000600082015250565b6000612fce600e8361267b565b9150612fd982612f98565b602082019050919050565b60006020820190508181036000830152612ffd81612fc1565b9050919050565b7f5469636b65742073616c652068617320656e6465640000000000000000000000600082015250565b600061303a60158361267b565b915061304582613004565b602082019050919050565b600060208201905081810360008301526130698161302d565b9050919050565b7f4e487b7100000000000000000000000000000000000000000000000000000000600052603260045260246000fd5b60006130aa826124e8565b91507fffffffffffffffffffffffffffffffffffffffffffffffffffffffffffffffff82036130dc576130db612f27565b5b600182019050919050565b7f5469636b65742073616c65206973207374696c6c206f6e000000000000000000600082015250565b600061311d60178361267b565b9150613128826130e7565b602082019050919050565b6000602082019050818103600083015261314c81613110565b9050919050565b7f54686572652773206e6f742045544820746f2077697468647261770000000000600082015250565b6000613189601b8361267b565b915061319482613153565b602082019050919050565b600060208201905081810360008301526131b88161317c565b9050919050565b7f43686f6f73652061206c75636b792077696e6e65722031737400000000000000600082015250565b60006131f560198361267b565b9150613200826131bf565b602082019050919050565b60006020820190508181036000830152613224816131e8565b9050919050565b7f455243313135353a206163636f756e747320616e6420696473206c656e67746860008201527f206d69736d617463680000000000000000000000000000000000000000000000602082015250565b600061328760298361267b565b91506132928261322b565b604082019050919050565b600060208201905081810360008301526132b68161327a565b9050919050565b7f4e6f206f6e652068617320626f75676874207469636b65747300000000000000600082015250565b60006132f360198361267b565b91506132fe826132bd565b602082019050919050565b60006020820190508181036000830152613322816132e6565b9050919050565b7f4c75636b792077696e6e657220616c72656164792063686f73656e0000000000600082015250565b600061335f601b8361267b565b915061336a82613329565b602082019050919050565b6000602082019050818103600083015261338e81613352565b9050919050565b6000819050919050565b6133b06133ab826124e8565b613395565b82525050565b60006133c2828561339f565b6020820191506133d2828461339f565b6020820191508190509392505050565b7f4e487b7100000000000000000000000000000000000000000000000000000000600052601260045260246000fd5b600061341c826124e8565b9150613427836124e8565b925082613437576134366133e2565b5b828206905092915050565b7f4f776e61626c653a206e6577206f776e657220697320746865207a65726f206160008201527f6464726573730000000000000000000000000000000000000000000000000000602082015250565b600061349e60268361267b565b91506134a982613442565b604082019050919050565b600060208201905081810360008301526134cd81613491565b9050919050565b7f455243313135353a2069647320616e6420616d6f756e7473206c656e6774682060008201527f6d69736d61746368000000000000000000000000000000000000000000000000602082015250565b600061353060288361267b565b915061353b826134d4565b604082019050919050565b6000602082019050818103600083015261355f81613523565b9050919050565b7f455243313135353a207472616e7366657220746f20746865207a65726f20616460008201527f6472657373000000000000000000000000000000000000000000000000000000602082015250565b60006135c260258361267b565b91506135cd82613566565b604082019050919050565b600060208201905081810360008301526135f1816135b5565b9050919050565b7f455243313135353a20696e73756666696369656e742062616c616e636520666f60008201527f72207472616e7366657200000000000000000000000000000000000000000000602082015250565b6000613654602a8361267b565b915061365f826135f8565b604082019050919050565b6000602082019050818103600083015261368381613647565b9050919050565b6000613695826124e8565b91506136a0836124e8565b92508282019050808211156136b8576136b7612f27565b5b92915050565b600060408201905081810360008301526136d88185612bb3565b905081810360208301526136ec8184612bb3565b90509392505050565b7f4f776e61626c653a2063616c6c6572206973206e6f7420746865206f776e6572600082015250565b600061372b60208361267b565b9150613736826136f5565b602082019050919050565b6000602082019050818103600083015261375a8161371e565b9050919050565b7f455243313135353a2073657474696e6720617070726f76616c2073746174757360008201527f20666f722073656c660000000000000000000000000000000000000000000000602082015250565b60006137bd60298361267b565b91506137c882613761565b604082019050919050565b600060208201905081810360008301526137ec816137b0565b9050919050565b6000604082019050613808600083018561255e565b613815602083018461255e565b9392505050565b600081519050919050565b600082825260208201905092915050565b60006138438261381c565b61384d8185613827565b935061385d81856020860161268c565b613866816126b6565b840191505092915050565b600060a08201905061388660008301886129ee565b61389360208301876129ee565b81810360408301526138a58186612bb3565b905081810360608301526138b98185612bb3565b905081810360808301526138cd8184613838565b90509695505050505050565b6000815190506138e8816125b4565b92915050565b60006020828403121561390457613903612480565b5b6000613912848285016138d9565b91505092915050565b60008160e01c9050919050565b600060033d11156139475760046000803e61394460005161391b565b90505b90565b600060443d106139d75761395c612476565b60043d036004823e80513d602482011167ffffffffffffffff821117156139845750506139d7565b808201805167ffffffffffffffff8111156139a257505050506139d7565b80602083010160043d0385018111156139bf5750505050506139d7565b6139ce82602001850186612756565b82955050505050505b90565b7f455243313135353a207472616e7366657220746f206e6f6e2d4552433131353560008201527f526563656976657220696d706c656d656e746572000000000000000000000000602082015250565b6000613a3660348361267b565b9150613a41826139da565b604082019050919050565b60006020820190508181036000830152613a6581613a29565b9050919050565b7f455243313135353a204552433131353552656365697665722072656a6563746560008201527f6420746f6b656e73000000000000000000000000000000000000000000000000602082015250565b6000613ac860288361267b565b9150613ad382613a6c565b604082019050919050565b60006020820190508181036000830152613af781613abb565b9050919050565b7f455243313135353a206d696e7420746f20746865207a65726f2061646472657360008201527f7300000000000000000000000000000000000000000000000000000000000000602082015250565b6000613b5a60218361267b565b9150613b6582613afe565b604082019050919050565b60006020820190508181036000830152613b8981613b4d565b9050919050565b600060a082019050613ba560008301886129ee565b613bb260208301876129ee565b613bbf604083018661255e565b613bcc606083018561255e565b8181036080830152613bde8184613838565b9050969550505050505056fea264697066735822122061aae6f5f526c7a902db6ddf6cffec5f392554626331ded3b618054007f25bea64736f6c63430008120033",
  "linkReferences": {},
  "deployedLinkReferences": {}
}